{
  "contractName": "Stub_CurveFi_SwapY",
  "abi": [
    {
      "constant": true,
      "inputs": [],
      "name": "N_COINS",
      "outputs": [
        {
          "internalType": "uint256",
          "name": "",
          "type": "uint256"
        }
      ],
      "payable": false,
      "stateMutability": "view",
      "type": "function"
    },
    {
      "constant": true,
      "inputs": [
        {
          "internalType": "uint256",
          "name": "",
          "type": "uint256"
        }
      ],
      "name": "__balances",
      "outputs": [
        {
          "internalType": "uint256",
          "name": "",
          "type": "uint256"
        }
      ],
      "payable": false,
      "stateMutability": "view",
      "type": "function"
    },
    {
      "constant": true,
      "inputs": [
        {
          "internalType": "uint256",
          "name": "",
          "type": "uint256"
        }
      ],
      "name": "__coins",
      "outputs": [
        {
          "internalType": "address",
          "name": "",
          "type": "address"
        }
      ],
      "payable": false,
      "stateMutability": "view",
      "type": "function"
    },
    {
      "constant": true,
      "inputs": [],
      "name": "__fee",
      "outputs": [
        {
          "internalType": "uint256",
          "name": "",
          "type": "uint256"
        }
      ],
      "payable": false,
      "stateMutability": "view",
      "type": "function"
    },
    {
      "constant": true,
      "inputs": [],
      "name": "__token",
      "outputs": [
        {
          "internalType": "address",
          "name": "",
          "type": "address"
        }
      ],
      "payable": false,
      "stateMutability": "view",
      "type": "function"
    },
    {
      "constant": true,
      "inputs": [
        {
          "internalType": "uint256",
          "name": "",
          "type": "uint256"
        }
      ],
      "name": "__underlying_coins",
      "outputs": [
        {
          "internalType": "address",
          "name": "",
          "type": "address"
        }
      ],
      "payable": false,
      "stateMutability": "view",
      "type": "function"
    },
    {
      "constant": false,
      "inputs": [
        {
          "internalType": "address[1]",
          "name": "_coins",
          "type": "address[1]"
        },
        {
          "internalType": "address[1]",
          "name": "_underlying_coins",
          "type": "address[1]"
        },
        {
          "internalType": "address",
          "name": "_pool_token",
          "type": "address"
        },
        {
          "internalType": "uint256",
          "name": "_fee",
          "type": "uint256"
        }
      ],
      "name": "initialize",
      "outputs": [],
      "payable": false,
      "stateMutability": "nonpayable",
      "type": "function"
    },
    {
      "constant": false,
      "inputs": [
        {
          "internalType": "uint256[1]",
          "name": "amounts",
          "type": "uint256[1]"
        },
        {
          "internalType": "uint256",
          "name": "min_mint_amount",
          "type": "uint256"
        }
      ],
      "name": "add_liquidity",
      "outputs": [],
      "payable": false,
      "stateMutability": "nonpayable",
      "type": "function"
    },
    {
      "constant": false,
      "inputs": [
        {
          "internalType": "uint256",
          "name": "_amount",
          "type": "uint256"
        },
        {
          "internalType": "uint256[1]",
          "name": "min_amounts",
          "type": "uint256[1]"
        }
      ],
      "name": "remove_liquidity",
      "outputs": [],
      "payable": false,
      "stateMutability": "nonpayable",
      "type": "function"
    },
    {
      "constant": false,
      "inputs": [
        {
          "internalType": "uint256[1]",
          "name": "amounts",
          "type": "uint256[1]"
        },
        {
          "internalType": "uint256",
          "name": "max_burn_amount",
          "type": "uint256"
        }
      ],
      "name": "remove_liquidity_imbalance",
      "outputs": [],
      "payable": false,
      "stateMutability": "nonpayable",
      "type": "function"
    },
    {
      "constant": true,
      "inputs": [
        {
          "internalType": "uint256[1]",
          "name": "amounts",
          "type": "uint256[1]"
        },
        {
          "internalType": "bool",
          "name": "deposit",
          "type": "bool"
        }
      ],
      "name": "calc_token_amount",
      "outputs": [
        {
          "internalType": "uint256",
          "name": "",
          "type": "uint256"
        }
      ],
      "payable": false,
      "stateMutability": "view",
      "type": "function"
    },
    {
      "constant": true,
      "inputs": [
        {
          "internalType": "int128",
          "name": "i",
          "type": "int128"
        }
      ],
      "name": "balances",
      "outputs": [
        {
          "internalType": "uint256",
          "name": "",
          "type": "uint256"
        }
      ],
      "payable": false,
      "stateMutability": "view",
      "type": "function"
    },
    {
      "constant": true,
      "inputs": [],
      "name": "A",
      "outputs": [
        {
          "internalType": "uint256",
          "name": "",
          "type": "uint256"
        }
      ],
      "payable": false,
      "stateMutability": "view",
      "type": "function"
    },
    {
      "constant": true,
      "inputs": [],
      "name": "fee",
      "outputs": [
        {
          "internalType": "uint256",
          "name": "",
          "type": "uint256"
        }
      ],
      "payable": false,
      "stateMutability": "view",
      "type": "function"
    },
    {
      "constant": true,
      "inputs": [
        {
          "internalType": "int128",
          "name": "i",
          "type": "int128"
        }
      ],
      "name": "coins",
      "outputs": [
        {
          "internalType": "address",
          "name": "",
          "type": "address"
        }
      ],
      "payable": false,
      "stateMutability": "view",
      "type": "function"
    }
  ],
  "bytecode": "0x6080604052611da4806100136000396000f3fe608060405234801561001057600080fd5b50600436106100f55760003560e01c80634b30dcb211610097578063ae8d2a0411610066578063ae8d2a041461053d578063aead32b514610587578063ddca3f43146105f6578063f446c1d014610614576100f5565b80634b30dcb2146103af5780635313b0e31461041d57806392a4d0f61461048c5780639cfad462146104ce576100f5565b806323746eb8116100d357806323746eb81461022d578063293577501461029e5780632f617fed146102bc578063364087921461032a576100f5565b806301342023146100fa578063065a80d8146101185780630b3ba6651461015d575b600080fd5b610102610632565b6040518082815260200191505060405180910390f35b6101476004803603602081101561012e57600080fd5b810190808035600f0b9060200190929190505050610638565b6040518082815260200191505060405180910390f35b61022b6004803603608081101561017357600080fd5b8101908080602001906001806020026040519081016040528092919082600160200280828437600081840152601f19601f820116905080830192505050505050919291929080602001906001806020026040519081016040528092919082600160200280828437600081840152601f19601f8201169050808301925050505050509192919290803573ffffffffffffffffffffffffffffffffffffffff16906020019092919080359060200190929190505050610653565b005b61025c6004803603602081101561024357600080fd5b810190808035600f0b9060200190929190505050610875565b604051808273ffffffffffffffffffffffffffffffffffffffff1673ffffffffffffffffffffffffffffffffffffffff16815260200191505060405180910390f35b6102a66108b0565b6040518082815260200191505060405180910390f35b6102e8600480360360208110156102d257600080fd5b81019080803590602001909291905050506108b5565b604051808273ffffffffffffffffffffffffffffffffffffffff1673ffffffffffffffffffffffffffffffffffffffff16815260200191505060405180910390f35b6103996004803603604081101561034057600080fd5b8101908080602001906001806020026040519081016040528092919082600160200280828437600081840152601f19601f82011690508083019250505050505091929192908035151590602001909291905050506108e8565b6040518082815260200191505060405180910390f35b6103db600480360360208110156103c557600080fd5b81019080803590602001909291905050506109f0565b604051808273ffffffffffffffffffffffffffffffffffffffff1673ffffffffffffffffffffffffffffffffffffffff16815260200191505060405180910390f35b61048a6004803603604081101561043357600080fd5b810190808035906020019092919080602001906001806020026040519081016040528092919082600160200280828437600081840152601f19601f8201169050808301925050505050509192919290505050610a23565b005b6104b8600480360360208110156104a257600080fd5b8101908080359060200190929190505050610dd9565b6040518082815260200191505060405180910390f35b61053b600480360360408110156104e457600080fd5b8101908080602001906001806020026040519081016040528092919082600160200280828437600081840152601f19601f820116905080830192505050505050919291929080359060200190929190505050610df1565b005b6105456110b7565b604051808273ffffffffffffffffffffffffffffffffffffffff1673ffffffffffffffffffffffffffffffffffffffff16815260200191505060405180910390f35b6105f46004803603604081101561059d57600080fd5b8101908080602001906001806020026040519081016040528092919082600160200280828437600081840152601f19601f8201169050808301925050505050509192919290803590602001909291905050506110dd565b005b6105fe61147d565b6040518082815260200191505060405180910390f35b61061c611487565b6040518082815260200191505060405180910390f35b60375481565b6000603482600f0b6001811061064a57fe5b01549050919050565b600060019054906101000a900460ff1680610672575061067161148f565b5b8061068957506000809054906101000a900460ff16155b6106de576040517f08c379a000000000000000000000000000000000000000000000000000000000815260040180806020018281038252602e815260200180611d42602e913960400191505060405180910390fd5b60008060019054906101000a900460ff16159050801561072e576001600060016101000a81548160ff02191690831515021790555060016000806101000a81548160ff0219169083151502179055505b60008090505b60018110156108045785816001811061074957fe5b60200201516035826001811061075b57fe5b0160006101000a81548173ffffffffffffffffffffffffffffffffffffffff021916908373ffffffffffffffffffffffffffffffffffffffff1602179055508481600181106107a657fe5b6020020151603682600181106107b857fe5b0160006101000a81548173ffffffffffffffffffffffffffffffffffffffff021916908373ffffffffffffffffffffffffffffffffffffffff1602179055508080600101915050610734565b5082603360006101000a81548173ffffffffffffffffffffffffffffffffffffffff021916908373ffffffffffffffffffffffffffffffffffffffff16021790555081603781905550801561086e5760008060016101000a81548160ff0219169083151502179055505b5050505050565b6000603582600f0b6001811061088757fe5b0160009054906101000a900473ffffffffffffffffffffffffffffffffffffffff169050919050565b600181565b603681600181106108c257fe5b016000915054906101000a900473ffffffffffffffffffffffffffffffffffffffff1681565b60006108f2611cdc565b600080600090505b60018110156109e4576034816001811061091057fe5b015483826004811061091e57fe5b602002018181525050841561095e5785816001811061093957fe5b602002015183826004811061094a57fe5b60200201818151019150818152505061098b565b85816001811061096a57fe5b602002015183826004811061097b57fe5b6020020181815103915081815250505b6109d36035826001811061099b57fe5b0160009054906101000a900473ffffffffffffffffffffffffffffffffffffffff168783600181106109c957fe5b60200201516114a6565b8201915080806001019150506108fa565b50809250505092915050565b603581600181106109fd57fe5b016000915054906101000a900473ffffffffffffffffffffffffffffffffffffffff1681565b6000603360009054906101000a900473ffffffffffffffffffffffffffffffffffffffff1673ffffffffffffffffffffffffffffffffffffffff166318160ddd6040518163ffffffff1660e01b815260040160206040518083038186803b158015610a8d57600080fd5b505afa158015610aa1573d6000803e3d6000fd5b505050506040513d6020811015610ab757600080fd5b8101908080519060200190929190505050905060606001604051908082528060200260200182016040528015610afc5781602001602082028038833980820191505090505b50905060008090505b6001811015610d0a576000610b1982610638565b9050610b4084610b3283896115a990919063ffffffff16565b61162f90919063ffffffff16565b838381518110610b4c57fe5b602002602001018181525050848260018110610b6457fe5b6020020151838381518110610b7557fe5b60200260200101511015610bf1576040517f08c379a000000000000000000000000000000000000000000000000000000000815260040180806020018281038252601a8152602001807f4d696e20776974686472617720616d6f756e74206661696c656400000000000081525060200191505060405180910390fd5b60358260018110610bfe57fe5b0160009054906101000a900473ffffffffffffffffffffffffffffffffffffffff1673ffffffffffffffffffffffffffffffffffffffff1663a9059cbb610c43611679565b858581518110610c4f57fe5b60200260200101516040518363ffffffff1660e01b8152600401808373ffffffffffffffffffffffffffffffffffffffff1673ffffffffffffffffffffffffffffffffffffffff16815260200182815260200192505050602060405180830381600087803b158015610cc057600080fd5b505af1158015610cd4573d6000803e3d6000fd5b505050506040513d6020811015610cea57600080fd5b810190808051906020019092919050505050508080600101915050610b05565b50603360009054906101000a900473ffffffffffffffffffffffffffffffffffffffff1673ffffffffffffffffffffffffffffffffffffffff166379cc6790610d51611679565b866040518363ffffffff1660e01b8152600401808373ffffffffffffffffffffffffffffffffffffffff1673ffffffffffffffffffffffffffffffffffffffff16815260200182815260200192505050600060405180830381600087803b158015610dbb57600080fd5b505af1158015610dcf573d6000803e3d6000fd5b5050505050505050565b60348160018110610de657fe5b016000915090505481565b6000610dfc83611681565b905081811015610e74576040517f08c379a00000000000000000000000000000000000000000000000000000000081526004018080602001828103825260168152602001807f4d696e206d696e7420616d6f756e74206661696c65640000000000000000000081525060200191505060405180910390fd5b60008090505b6001811015610fc55760358160018110610e9057fe5b0160009054906101000a900473ffffffffffffffffffffffffffffffffffffffff1673ffffffffffffffffffffffffffffffffffffffff166323b872dd3330878560018110610edb57fe5b60200201516040518463ffffffff1660e01b8152600401808473ffffffffffffffffffffffffffffffffffffffff1673ffffffffffffffffffffffffffffffffffffffff1681526020018373ffffffffffffffffffffffffffffffffffffffff1673ffffffffffffffffffffffffffffffffffffffff1681526020018281526020019350505050602060405180830381600087803b158015610f7c57600080fd5b505af1158015610f90573d6000803e3d6000fd5b505050506040513d6020811015610fa657600080fd5b8101908080519060200190929190505050508080600101915050610e7a565b50603360009054906101000a900473ffffffffffffffffffffffffffffffffffffffff1673ffffffffffffffffffffffffffffffffffffffff166340c10f1961100c611679565b836040518363ffffffff1660e01b8152600401808373ffffffffffffffffffffffffffffffffffffffff1673ffffffffffffffffffffffffffffffffffffffff16815260200182815260200192505050602060405180830381600087803b15801561107657600080fd5b505af115801561108a573d6000803e3d6000fd5b505050506040513d60208110156110a057600080fd5b810190808051906020019092919050505050505050565b603360009054906101000a900473ffffffffffffffffffffffffffffffffffffffff1681565b6000603360009054906101000a900473ffffffffffffffffffffffffffffffffffffffff1673ffffffffffffffffffffffffffffffffffffffff166318160ddd6040518163ffffffff1660e01b815260040160206040518083038186803b15801561114757600080fd5b505afa15801561115b573d6000803e3d6000fd5b505050506040513d602081101561117157600080fd5b81019080805190602001909291905050509050600081116111fa576040517f08c379a00000000000000000000000000000000000000000000000000000000081526004018080602001828103825260138152602001807f4e6f7468696e6720746f2077697468647261770000000000000000000000000081525060200191505060405180910390fd5b60006112078460006117e6565b905060008090505b600181101561132d576035816001811061122557fe5b0160009054906101000a900473ffffffffffffffffffffffffffffffffffffffff1673ffffffffffffffffffffffffffffffffffffffff1663a9059cbb61126a611679565b87846001811061127657fe5b60200201516040518363ffffffff1660e01b8152600401808373ffffffffffffffffffffffffffffffffffffffff1673ffffffffffffffffffffffffffffffffffffffff16815260200182815260200192505050602060405180830381600087803b1580156112e457600080fd5b505af11580156112f8573d6000803e3d6000fd5b505050506040513d602081101561130e57600080fd5b810190808051906020019092919050505050808060010191505061120f565b50600083148061133d5750828111155b6113af576040517f08c379a00000000000000000000000000000000000000000000000000000000081526004018080602001828103825260168152602001807f4d696e206275726e20616d6f756e74206661696c65640000000000000000000081525060200191505060405180910390fd5b603360009054906101000a900473ffffffffffffffffffffffffffffffffffffffff1673ffffffffffffffffffffffffffffffffffffffff166379cc67906113f5611679565b836040518363ffffffff1660e01b8152600401808373ffffffffffffffffffffffffffffffffffffffff1673ffffffffffffffffffffffffffffffffffffffff16815260200182815260200192505050600060405180830381600087803b15801561145f57600080fd5b505af1158015611473573d6000803e3d6000fd5b5050505050505050565b6000603754905090565b600080905090565b6000803090506000813b9050600081149250505090565b6000808373ffffffffffffffffffffffffffffffffffffffff1663313ce5676040518163ffffffff1660e01b815260040160206040518083038186803b1580156114ef57600080fd5b505afa158015611503573d6000803e3d6000fd5b505050506040513d602081101561151957600080fd5b8101908080519060200190929190505050905060128160ff16141561154157829150506115a3565b60128160ff161115611571576115696012820360ff16600a0a8461162f90919063ffffffff16565b9150506115a3565b60128160ff1610156115a1576115998160120360ff16600a0a846115a990919063ffffffff16565b9150506115a3565b505b92915050565b6000808314156115bc5760009050611629565b60008284029050828482816115cd57fe5b0414611624576040517f08c379a0000000000000000000000000000000000000000000000000000000008152600401808060200182810382526021815260200180611d216021913960400191505060405180910390fd5b809150505b92915050565b600061167183836040518060400160405280601a81526020017f536166654d6174683a206469766973696f6e206279207a65726f000000000000815250611a84565b905092915050565b600033905090565b6000806000603360009054906101000a900473ffffffffffffffffffffffffffffffffffffffff1673ffffffffffffffffffffffffffffffffffffffff166318160ddd6040518163ffffffff1660e01b815260040160206040518083038186803b1580156116ee57600080fd5b505afa158015611702573d6000803e3d6000fd5b505050506040513d602081101561171857600080fd5b810190808051906020019092919050505011156117415761173a8360016117e6565b90506117dd565b600080600090505b60018110156117d75784816001811061175e57fe5b60200201516034826001811061177057fe5b01600082825401925050819055506117c66035826001811061178e57fe5b0160009054906101000a900473ffffffffffffffffffffffffffffffffffffffff168683600181106117bc57fe5b60200201516114a6565b820191508080600101915050611749565b50809150505b80915050919050565b6000806117f1611cfe565b6117f9611cfe565b600092505b6001831015611838576034836001811061181457fe5b015481846001811061182257fe5b60200201818152505082806001019350506117fe565b60008093505b600184101561193c57851561189a5761188087856001811061185c57fe5b602002015183866001811061186d57fe5b6020020151611b4a90919063ffffffff16565b83856001811061188c57fe5b6020020181815250506118e3565b6118cd8785600181106118a957fe5b60200201518386600181106118ba57fe5b6020020151611bd290919063ffffffff16565b8385600181106118d957fe5b6020020181815250505b61192b603585600181106118f357fe5b0160009054906101000a900473ffffffffffffffffffffffffffffffffffffffff1688866001811061192157fe5b60200201516114a6565b81019050838060010194505061183e565b60006001603754029050600094505b6001851015611a3857600061198f6127106119816126ac878a6001811061196e57fe5b60200201516115a990919063ffffffff16565b61162f90919063ffffffff16565b9050600085876001811061199f57fe5b60200201518211156119c5578587600181106119b757fe5b6020020151820390506119db565b818688600181106119d257fe5b60200201510390505b60006402540be400828502816119ed57fe5b049050611a1381888a60018110611a0057fe5b6020020151611bd290919063ffffffff16565b878960018110611a1f57fe5b602002018181525050505050848060010195505061194b565b600094505b6001851015611a7657838560018110611a5257fe5b602002015160348660018110611a6457fe5b01819055508480600101955050611a3d565b819550505050505092915050565b60008083118290611b30576040517f08c379a00000000000000000000000000000000000000000000000000000000081526004018080602001828103825283818151815260200191508051906020019080838360005b83811015611af5578082015181840152602081019050611ada565b50505050905090810190601f168015611b225780820380516001836020036101000a031916815260200191505b509250505060405180910390fd5b506000838581611b3c57fe5b049050809150509392505050565b600080828401905083811015611bc8576040517f08c379a000000000000000000000000000000000000000000000000000000000815260040180806020018281038252601b8152602001807f536166654d6174683a206164646974696f6e206f766572666c6f77000000000081525060200191505060405180910390fd5b8091505092915050565b6000611c1483836040518060400160405280601e81526020017f536166654d6174683a207375627472616374696f6e206f766572666c6f770000815250611c1c565b905092915050565b6000838311158290611cc9576040517f08c379a00000000000000000000000000000000000000000000000000000000081526004018080602001828103825283818151815260200191508051906020019080838360005b83811015611c8e578082015181840152602081019050611c73565b50505050905090810190601f168015611cbb5780820380516001836020036101000a031916815260200191505b509250505060405180910390fd5b5060008385039050809150509392505050565b6040518060800160405280600490602082028038833980820191505090505090565b604051806020016040528060019060208202803883398082019150509050509056fe536166654d6174683a206d756c7469706c69636174696f6e206f766572666c6f77436f6e747261637420696e7374616e63652068617320616c7265616479206265656e20696e697469616c697a6564a265627a7a72315820e1bd213176686c0566e705f86ad7459a5f7d8f6a96016fe901a07f5043ba711964736f6c634300050c0032",
  "source": "pragma solidity ^0.5.12;\n\nimport \"@openzeppelin/upgrades/contracts/Initializable.sol\";\nimport \"@openzeppelin/contracts-ethereum-package/contracts/GSN/Context.sol\";\n\nimport \"@openzeppelin/contracts-ethereum-package/contracts/token/ERC20/IERC20.sol\";\nimport \"@openzeppelin/contracts-ethereum-package/contracts/token/ERC20/ERC20Detailed.sol\";\nimport \"@openzeppelin/contracts-ethereum-package/contracts/token/ERC20/ERC20Mintable.sol\";\nimport \"@openzeppelin/contracts-ethereum-package/contracts/token/ERC20/ERC20Burnable.sol\";\nimport \"@openzeppelin/contracts-ethereum-package/contracts/math/SafeMath.sol\";\n\nimport \"../../Interfaces/IYERC20.sol\";\nimport \"../../Interfaces/ICurveFi_SwapY.sol\";\n\n/** \n * @dev Test stub for the implementation of Curve.Fi swap contract for Y-pool.\n * @dev Original code is located in official repository:\n * https://github.com/curvefi/curve-contract/blob/master/contracts/pools/y/StableSwapY.vy\n */\ncontract Stub_CurveFi_SwapY is ICurveFi_SwapY, Initializable, Context {\n    using SafeMath for uint256;\n\n    uint256 public constant N_COINS = 1;\n    uint256 constant MAX_EXCHANGE_FEE = 0.05*1e18;\n\n    address public __token;\n    uint256[N_COINS] public __balances;\n    address[N_COINS] public __coins;\n    address[N_COINS] public __underlying_coins;\n    uint256 public __fee;\n\n    function initialize(address[N_COINS] memory _coins, address[N_COINS] memory _underlying_coins, address _pool_token, uint256 _fee) public initializer {\n        for (uint256 i = 0; i < N_COINS; i++) {\n            __coins[i] = _coins[i];\n            __underlying_coins[i] = _underlying_coins[i];\n        }\n        __token = _pool_token;\n        __fee = _fee;\n    }\n\n    function add_liquidity(uint256[N_COINS] memory amounts, uint256 min_mint_amount) public {\n        uint256 mint_amount = calculateMintAmount(amounts);\n        \n        require(mint_amount >= min_mint_amount, \"Min mint amount failed\");\n\n        // Take coins from the sender\n        for (uint256 i = 0; i < N_COINS; i++) {\n            IYERC20(__coins[i]).transferFrom(msg.sender, address(this), amounts[i]);\n        }\n\n        ERC20Mintable(__token).mint(_msgSender(), mint_amount);\n    }\n\n    function remove_liquidity (uint256 _amount, uint256[N_COINS] memory min_amounts) public {\n        uint256 total_supply = IERC20(__token).totalSupply();\n        uint256[] memory amounts = new uint256[](__coins.length);\n\n        for (uint256 i=0; i < __coins.length; i++){\n            uint256 value = balances(int128(i));\n            amounts[i] = _amount.mul(value).div(total_supply);\n            require(amounts[i] >= min_amounts[i], \"Min withdraw amount failed\");\n            IYERC20(__coins[i]).transfer(_msgSender(), amounts[i]);\n        }\n        ERC20Burnable(__token).burnFrom(_msgSender(), _amount);\n    }\n\n    function remove_liquidity_imbalance(uint256[N_COINS] memory amounts, uint256 max_burn_amount) public {\n        uint256 total_supply = IERC20(__token).totalSupply();\n        require(total_supply > 0, \"Nothing to withdraw\");\n\n        uint256 token_amount = change_token_amount_with_fees(amounts, false);\n\n        for (uint256 i=0; i < N_COINS; i++){\n            IYERC20(__coins[i]).transfer(_msgSender(), amounts[i]);\n        }\n\n        require(max_burn_amount == 0 || token_amount <= max_burn_amount, \"Min burn amount failed\");\n        ERC20Burnable(__token).burnFrom(_msgSender(), token_amount);\n    }\n\n    function calculateMintAmount(uint256[N_COINS] memory amounts) internal returns(uint256) {\n\n        uint256 mint_amount;\n        if (IERC20(__token).totalSupply() > 0) {\n            mint_amount = change_token_amount_with_fees(amounts, true);\n        }\n        else {\n            uint256 total;\n            for (uint256 i = 0; i < N_COINS; i++) {\n                __balances[i] += amounts[i];\n                total += normalize(__coins[i], amounts[i]);\n            }\n//            D1: uint256 = self.get_D_mem(rates, balances)\n //           mint_amount = D1;\n            mint_amount = total;\n        }\n        return mint_amount;\n    }\n\n    function calc_token_amount(uint256[N_COINS] memory amounts, bool deposit) public view returns(uint256) {\n\n //       uint256[N_COINS] rates = _stored_rates();\n //       D0: uint256 = self.get_D_mem(rates, _balances)\n        uint256[4] memory _balances;\n        uint256 total;\n        for (uint256 i = 0; i < N_COINS; i++) {\n            _balances[i] = __balances[i];\n            if (deposit)\n                _balances[i] += amounts[i];\n            else\n                _balances[i] -= amounts[i];\n            total += normalize(__coins[i], amounts[i]);\n        }\n//        D1: uint256 = self.get_D_mem(rates, _balances)\n\n //       uint256 token_amount = IERC20(token).totalSupply();\n//        uint256 diff;\n//        if (deposit)\n//            diff = D1 - D0;\n//        else\n//            diff = D0 - D1;\n         return total;//return diff * token_amount / D0\n    }\n\n    function change_token_amount_with_fees(uint256[N_COINS] memory amounts, bool deposit) internal returns(uint256) {\n        uint256 i;\n        uint256[N_COINS] memory new_balances;\n        uint256[N_COINS] memory old_balances;\n\n        for (i = 0; i < N_COINS; i++) {\n            old_balances[i] = __balances[i];\n        }\n        \n    //Step 1\n        //D0: uint256 = self.get_D_mem(rates, _balances)\n        \n        uint256 total;\n        for (i = 0; i < N_COINS; i++) {\n            if (deposit)\n                new_balances[i] = old_balances[i].add(amounts[i]);\n            else\n                new_balances[i] = old_balances[i].sub(amounts[i]);\n            total += normalize(__coins[i], amounts[i]);\n        }\n\n    //Step 2\n        //D1: uint256 = self.get_D_mem(rates, new_balances)\n        \n        uint256 _fee = __fee * N_COINS;\n        for (i = 0; i < N_COINS; i++) {\n            uint256 ideal_balance = old_balances[i].mul(9900).div(10000);//D1 * old_balances[i] / D0;\n            uint256 difference;\n            if (ideal_balance > new_balances[i])\n                difference = ideal_balance - new_balances[i];\n            else\n                difference = new_balances[i] - ideal_balance;\n            uint256 fee = _fee * difference / (10 ** 10);\n            \n            new_balances[i] = new_balances[i].sub(fee);\n        }\n\n    //Step 3\n       // D2: uint256 = self.get_D_mem(rates, new_balances)\n\n        for (i = 0; i < N_COINS; i++) {\n            __balances[i] = new_balances[i];\n        }\n        \n//        uint256 token_amount = IERC20(token).totalSupply();\n//        uint256 diff;\n//        if (deposit)\n//            diff = D2 - D0;\n//        else\n//            diff = D0 - D2;\n        return total;//token_amount.mul(9800).div(10000);//diff * token_amount / D0;\n    }\n\n    /**\n     * @notice Util to normalize balance up to 18 decimals\n     */\n    function normalize(address coin, uint256 amount) internal view returns(uint256) {\n        uint8 decimals = ERC20Detailed(coin).decimals();\n        if (decimals == 18) {\n            return amount;\n        } else if (decimals > 18) {\n            return amount.div(uint256(10)**(decimals-18));\n        } else if (decimals < 18) {\n            return amount.mul(uint256(10)**(18 - decimals));\n        }\n    }\n\n    function balances(int128 i) public view returns(uint256) {\n        return __balances[uint256(i)];//IERC20(__coins[uint256(i)]).balanceOf(address(this));\n    }\n\n    function A() public view returns(uint256) {\n        this;\n        return 0;\n    }\n\n    function fee() public view returns(uint256) {\n        return __fee;\n    }\n\n    function coins(int128 i) public view returns (address) {\n        return __coins[uint256(i)];\n    }\n}",
  "sourcePath": "/Users/adityabharti/kosenai/contracts/test/Stub_CurveFi_SwapY.sol",
  "compiler": {
    "name": "solc",
    "version": "0.5.12+commit.7709ece9.Emscripten.clang"
  },
  "schemaVersion": "3.3.4",
  "updatedAt": "2022-04-24T17:59:36.810Z",
  "devdoc": {
    "details": "Test stub for the implementation of Curve.Fi swap contract for Y-pool.Original code is located in official repository: https://github.com/curvefi/curve-contract/blob/master/contracts/pools/y/StableSwapY.vy",
    "methods": {}
  },
  "userdoc": {
    "methods": {}
  }
}