{
  "contractName": "Stub_CurveFi_Minter",
  "abi": [
    {
      "constant": true,
      "inputs": [
        {
          "internalType": "address",
          "name": "",
          "type": "address"
        },
        {
          "internalType": "address",
          "name": "",
          "type": "address"
        }
      ],
      "name": "__minted",
      "outputs": [
        {
          "internalType": "uint256",
          "name": "",
          "type": "uint256"
        }
      ],
      "payable": false,
      "stateMutability": "view",
      "type": "function"
    },
    {
      "constant": true,
      "inputs": [],
      "name": "__token",
      "outputs": [
        {
          "internalType": "address",
          "name": "",
          "type": "address"
        }
      ],
      "payable": false,
      "stateMutability": "view",
      "type": "function"
    },
    {
      "constant": true,
      "inputs": [
        {
          "internalType": "address",
          "name": "",
          "type": "address"
        },
        {
          "internalType": "address",
          "name": "",
          "type": "address"
        }
      ],
      "name": "allowed_to_mint_for",
      "outputs": [
        {
          "internalType": "bool",
          "name": "",
          "type": "bool"
        }
      ],
      "payable": false,
      "stateMutability": "view",
      "type": "function"
    },
    {
      "constant": false,
      "inputs": [
        {
          "internalType": "address",
          "name": "_token",
          "type": "address"
        }
      ],
      "name": "initialize",
      "outputs": [],
      "payable": false,
      "stateMutability": "nonpayable",
      "type": "function"
    },
    {
      "constant": false,
      "inputs": [
        {
          "internalType": "address",
          "name": "gauge_addr",
          "type": "address"
        }
      ],
      "name": "mint",
      "outputs": [],
      "payable": false,
      "stateMutability": "nonpayable",
      "type": "function"
    },
    {
      "constant": false,
      "inputs": [
        {
          "internalType": "address",
          "name": "gauge_addr",
          "type": "address"
        },
        {
          "internalType": "address",
          "name": "_for",
          "type": "address"
        }
      ],
      "name": "mint_for",
      "outputs": [],
      "payable": false,
      "stateMutability": "nonpayable",
      "type": "function"
    },
    {
      "constant": false,
      "inputs": [
        {
          "internalType": "address",
          "name": "minting_user",
          "type": "address"
        }
      ],
      "name": "toggle_approve_mint",
      "outputs": [],
      "payable": false,
      "stateMutability": "nonpayable",
      "type": "function"
    },
    {
      "constant": true,
      "inputs": [],
      "name": "token",
      "outputs": [
        {
          "internalType": "address",
          "name": "",
          "type": "address"
        }
      ],
      "payable": false,
      "stateMutability": "view",
      "type": "function"
    },
    {
      "constant": true,
      "inputs": [
        {
          "internalType": "address",
          "name": "_for",
          "type": "address"
        },
        {
          "internalType": "address",
          "name": "gauge_addr",
          "type": "address"
        }
      ],
      "name": "minted",
      "outputs": [
        {
          "internalType": "uint256",
          "name": "",
          "type": "uint256"
        }
      ],
      "payable": false,
      "stateMutability": "view",
      "type": "function"
    }
  ],
  "bytecode": "0x6080604052610aa7806100136000396000f3fe608060405234801561001057600080fd5b50600436106100935760003560e01c8063a099003311610066578063a099003314610230578063ae8d2a04146102ac578063c4d66de8146102f6578063dd289d601461033a578063fc0c546a1461037e57610093565b806307a361cb1461009857806327f18ae3146101105780636a627842146101745780638b752bb0146101b8575b600080fd5b6100fa600480360360408110156100ae57600080fd5b81019080803573ffffffffffffffffffffffffffffffffffffffff169060200190929190803573ffffffffffffffffffffffffffffffffffffffff1690602001909291905050506103c8565b6040518082815260200191505060405180910390f35b6101726004803603604081101561012657600080fd5b81019080803573ffffffffffffffffffffffffffffffffffffffff169060200190929190803573ffffffffffffffffffffffffffffffffffffffff1690602001909291905050506103ed565b005b6101b66004803603602081101561018a57600080fd5b81019080803573ffffffffffffffffffffffffffffffffffffffff16906020019092919050505061048b565b005b61021a600480360360408110156101ce57600080fd5b81019080803573ffffffffffffffffffffffffffffffffffffffff169060200190929190803573ffffffffffffffffffffffffffffffffffffffff169060200190929190505050610498565b6040518082815260200191505060405180910390f35b6102926004803603604081101561024657600080fd5b81019080803573ffffffffffffffffffffffffffffffffffffffff169060200190929190803573ffffffffffffffffffffffffffffffffffffffff16906020019092919050505061051f565b604051808215151515815260200191505060405180910390f35b6102b461054e565b604051808273ffffffffffffffffffffffffffffffffffffffff1673ffffffffffffffffffffffffffffffffffffffff16815260200191505060405180910390f35b6103386004803603602081101561030c57600080fd5b81019080803573ffffffffffffffffffffffffffffffffffffffff169060200190929190505050610574565b005b61037c6004803603602081101561035057600080fd5b81019080803573ffffffffffffffffffffffffffffffffffffffff1690602001909291905050506105b8565b005b6103866106d9565b604051808273ffffffffffffffffffffffffffffffffffffffff1673ffffffffffffffffffffffffffffffffffffffff16815260200191505060405180910390f35b6033602052816000526040600020602052806000526040600020600091509150505481565b603460003373ffffffffffffffffffffffffffffffffffffffff1673ffffffffffffffffffffffffffffffffffffffff16815260200190815260200160002060008273ffffffffffffffffffffffffffffffffffffffff1673ffffffffffffffffffffffffffffffffffffffff16815260200190815260200160002060009054906101000a900460ff1615610487576104868282610703565b5b5050565b6104958133610703565b50565b6000603360008473ffffffffffffffffffffffffffffffffffffffff1673ffffffffffffffffffffffffffffffffffffffff16815260200190815260200160002060008373ffffffffffffffffffffffffffffffffffffffff1673ffffffffffffffffffffffffffffffffffffffff16815260200190815260200160002054905092915050565b60346020528160005260406000206020528060005260406000206000915091509054906101000a900460ff1681565b603560009054906101000a900473ffffffffffffffffffffffffffffffffffffffff1681565b80603560006101000a81548173ffffffffffffffffffffffffffffffffffffffff021916908373ffffffffffffffffffffffffffffffffffffffff16021790555050565b603460008273ffffffffffffffffffffffffffffffffffffffff1673ffffffffffffffffffffffffffffffffffffffff16815260200190815260200160002060003373ffffffffffffffffffffffffffffffffffffffff1673ffffffffffffffffffffffffffffffffffffffff16815260200190815260200160002060009054906101000a900460ff1615603460008373ffffffffffffffffffffffffffffffffffffffff1673ffffffffffffffffffffffffffffffffffffffff16815260200190815260200160002060003373ffffffffffffffffffffffffffffffffffffffff1673ffffffffffffffffffffffffffffffffffffffff16815260200190815260200160002060006101000a81548160ff02191690831515021790555050565b6000603560009054906101000a900473ffffffffffffffffffffffffffffffffffffffff16905090565b8173ffffffffffffffffffffffffffffffffffffffff16634b820093826040518263ffffffff1660e01b8152600401808273ffffffffffffffffffffffffffffffffffffffff1673ffffffffffffffffffffffffffffffffffffffff168152602001915050602060405180830381600087803b15801561078257600080fd5b505af1158015610796573d6000803e3d6000fd5b505050506040513d60208110156107ac57600080fd5b81019080805190602001909291905050505060008273ffffffffffffffffffffffffffffffffffffffff166309400707836040518263ffffffff1660e01b8152600401808273ffffffffffffffffffffffffffffffffffffffff1673ffffffffffffffffffffffffffffffffffffffff16815260200191505060206040518083038186803b15801561083d57600080fd5b505afa158015610851573d6000803e3d6000fd5b505050506040513d602081101561086757600080fd5b810190808051906020019092919050505090506000603360008473ffffffffffffffffffffffffffffffffffffffff1673ffffffffffffffffffffffffffffffffffffffff16815260200190815260200160002060008573ffffffffffffffffffffffffffffffffffffffff1673ffffffffffffffffffffffffffffffffffffffff168152602001908152602001600020548203905060008114610a6c57603560009054906101000a900473ffffffffffffffffffffffffffffffffffffffff1673ffffffffffffffffffffffffffffffffffffffff166340c10f1984836040518363ffffffff1660e01b8152600401808373ffffffffffffffffffffffffffffffffffffffff1673ffffffffffffffffffffffffffffffffffffffff16815260200182815260200192505050602060405180830381600087803b1580156109ae57600080fd5b505af11580156109c2573d6000803e3d6000fd5b505050506040513d60208110156109d857600080fd5b81019080805190602001909291905050505081603360008573ffffffffffffffffffffffffffffffffffffffff1673ffffffffffffffffffffffffffffffffffffffff16815260200190815260200160002060008673ffffffffffffffffffffffffffffffffffffffff1673ffffffffffffffffffffffffffffffffffffffff168152602001908152602001600020819055505b5050505056fea265627a7a72315820387143c926c61c5a5f3a75e2befcf09d02c7d4d097e23116ffc0856b74d0115b64736f6c634300050c0032",
  "source": "pragma solidity ^0.5.12;\n\nimport \"@openzeppelin/upgrades/contracts/Initializable.sol\";\nimport \"@openzeppelin/contracts-ethereum-package/contracts/GSN/Context.sol\";\n\nimport \"@openzeppelin/contracts-ethereum-package/contracts/token/ERC20/ERC20Mintable.sol\";\n\nimport \"../../Interfaces/ICurveFi_Minter.sol\";\nimport \"../../Interfaces/ICurveFi_Gauge.sol\";\n\n\n/** \n * @dev Test stub for the implementation of Curve.Fi CRV minter contract.\n * @dev Original code is located in official repository:\n * https://github.com/curvefi/curve-dao-contracts/blob/master/contracts/Minter.vy\n */\ncontract Stub_CurveFi_Minter is Initializable, Context, ICurveFi_Minter {\n    mapping(address => mapping(address => uint256)) public __minted;\n    mapping(address => mapping(address => bool)) public allowed_to_mint_for;\n    \n    //CRV token\n    address public __token;\n\n    function initialize(address _token) public {\n        __token = _token;\n    }\n\n    function mint(address gauge_addr) public {\n        _mint_for(gauge_addr, msg.sender);\n    }\n\n    function mint_for(address gauge_addr, address _for) public {\n        if (allowed_to_mint_for[msg.sender][_for])\n            _mint_for(gauge_addr, _for);\n    }\n\n    function toggle_approve_mint(address minting_user) public {\n        allowed_to_mint_for[minting_user][msg.sender] = !allowed_to_mint_for[minting_user][msg.sender];\n    }\n\n    function token() public view returns(address) {\n        return __token;\n    }\n\n    function minted(address _for, address gauge_addr) public view returns(uint256) {\n        return __minted[_for][gauge_addr];\n    }\n\n    function _mint_for(address gauge_addr, address _for) internal {\n        ICurveFi_Gauge(gauge_addr).user_checkpoint(_for);\n        uint256 total_mint = ICurveFi_Gauge(gauge_addr).integrate_fraction(_for);\n        uint256 to_mint = total_mint - __minted[_for][gauge_addr];\n\n        if (to_mint != 0) {\n            ERC20Mintable(__token).mint(_for, to_mint);\n            __minted[_for][gauge_addr] = total_mint;\n        }\n    }\n}",
  "sourcePath": "/Users/adityabharti/kosenai/contracts/test/Stub_CurveFi_Minter.sol",
  "compiler": {
    "name": "solc",
    "version": "0.5.12+commit.7709ece9.Emscripten.clang"
  },
  "schemaVersion": "3.3.4",
  "updatedAt": "2022-04-24T17:59:36.809Z",
  "devdoc": {
    "details": "Test stub for the implementation of Curve.Fi CRV minter contract.Original code is located in official repository: https://github.com/curvefi/curve-dao-contracts/blob/master/contracts/Minter.vy",
    "methods": {}
  },
  "userdoc": {
    "methods": {}
  }
}