{
  "contractName": "Stub_CurveFi_DepositY",
  "abi": [
    {
      "constant": true,
      "inputs": [],
      "name": "N_COINS",
      "outputs": [
        {
          "internalType": "uint256",
          "name": "",
          "type": "uint256"
        }
      ],
      "payable": false,
      "stateMutability": "view",
      "type": "function"
    },
    {
      "constant": true,
      "inputs": [],
      "name": "__curve",
      "outputs": [
        {
          "internalType": "address",
          "name": "",
          "type": "address"
        }
      ],
      "payable": false,
      "stateMutability": "view",
      "type": "function"
    },
    {
      "constant": true,
      "inputs": [],
      "name": "__token",
      "outputs": [
        {
          "internalType": "address",
          "name": "",
          "type": "address"
        }
      ],
      "payable": false,
      "stateMutability": "view",
      "type": "function"
    },
    {
      "constant": false,
      "inputs": [
        {
          "internalType": "address[1]",
          "name": "_coins",
          "type": "address[1]"
        },
        {
          "internalType": "address[1]",
          "name": "_underlying_coins",
          "type": "address[1]"
        },
        {
          "internalType": "address",
          "name": "_curve",
          "type": "address"
        },
        {
          "internalType": "address",
          "name": "_token",
          "type": "address"
        }
      ],
      "name": "initialize",
      "outputs": [],
      "payable": false,
      "stateMutability": "nonpayable",
      "type": "function"
    },
    {
      "constant": false,
      "inputs": [
        {
          "internalType": "uint256[1]",
          "name": "uamounts",
          "type": "uint256[1]"
        },
        {
          "internalType": "uint256",
          "name": "min_mint_amount",
          "type": "uint256"
        }
      ],
      "name": "add_liquidity",
      "outputs": [],
      "payable": false,
      "stateMutability": "nonpayable",
      "type": "function"
    },
    {
      "constant": false,
      "inputs": [
        {
          "internalType": "uint256",
          "name": "_amount",
          "type": "uint256"
        },
        {
          "internalType": "uint256[1]",
          "name": "min_uamounts",
          "type": "uint256[1]"
        }
      ],
      "name": "remove_liquidity",
      "outputs": [],
      "payable": false,
      "stateMutability": "nonpayable",
      "type": "function"
    },
    {
      "constant": false,
      "inputs": [
        {
          "internalType": "uint256[1]",
          "name": "uamounts",
          "type": "uint256[1]"
        },
        {
          "internalType": "uint256",
          "name": "max_burn_amount",
          "type": "uint256"
        }
      ],
      "name": "remove_liquidity_imbalance",
      "outputs": [],
      "payable": false,
      "stateMutability": "nonpayable",
      "type": "function"
    },
    {
      "constant": true,
      "inputs": [
        {
          "internalType": "int128",
          "name": "i",
          "type": "int128"
        }
      ],
      "name": "coins",
      "outputs": [
        {
          "internalType": "address",
          "name": "",
          "type": "address"
        }
      ],
      "payable": false,
      "stateMutability": "view",
      "type": "function"
    },
    {
      "constant": true,
      "inputs": [
        {
          "internalType": "int128",
          "name": "i",
          "type": "int128"
        }
      ],
      "name": "underlying_coins",
      "outputs": [
        {
          "internalType": "address",
          "name": "",
          "type": "address"
        }
      ],
      "payable": false,
      "stateMutability": "view",
      "type": "function"
    },
    {
      "constant": true,
      "inputs": [],
      "name": "underlying_coins",
      "outputs": [
        {
          "internalType": "address[1]",
          "name": "",
          "type": "address[1]"
        }
      ],
      "payable": false,
      "stateMutability": "view",
      "type": "function"
    },
    {
      "constant": true,
      "inputs": [],
      "name": "curve",
      "outputs": [
        {
          "internalType": "address",
          "name": "",
          "type": "address"
        }
      ],
      "payable": false,
      "stateMutability": "view",
      "type": "function"
    },
    {
      "constant": true,
      "inputs": [],
      "name": "token",
      "outputs": [
        {
          "internalType": "address",
          "name": "",
          "type": "address"
        }
      ],
      "payable": false,
      "stateMutability": "view",
      "type": "function"
    }
  ],
  "bytecode": "0x6080604052612140806100136000396000f3fe608060405234801561001057600080fd5b50600436106100b45760003560e01c80639cfad462116100715780639cfad46214610331578063ae8d2a04146103a0578063aead32b5146103ea578063b739953e14610459578063fb6d3a89146104ca578063fc0c546a14610510576100b4565b80630240c3e9146100b957806323746eb81461010357806329357750146101745780635313b0e3146101925780637165485d1461020157806383596f3a1461024b575b600080fd5b6100c161055a565b604051808273ffffffffffffffffffffffffffffffffffffffff1673ffffffffffffffffffffffffffffffffffffffff16815260200191505060405180910390f35b6101326004803603602081101561011957600080fd5b810190808035600f0b9060200190929190505050610580565b604051808273ffffffffffffffffffffffffffffffffffffffff1673ffffffffffffffffffffffffffffffffffffffff16815260200191505060405180910390f35b61017c6105bb565b6040518082815260200191505060405180910390f35b6101ff600480360360408110156101a857600080fd5b810190808035906020019092919080602001906001806020026040519081016040528092919082600160200280828437600081840152601f19601f82011690508083019250505050505091929192905050506105c0565b005b6102096106f7565b604051808273ffffffffffffffffffffffffffffffffffffffff1673ffffffffffffffffffffffffffffffffffffffff16815260200191505060405180910390f35b61032f6004803603608081101561026157600080fd5b8101908080602001906001806020026040519081016040528092919082600160200280828437600081840152601f19601f820116905080830192505050505050919291929080602001906001806020026040519081016040528092919082600160200280828437600081840152601f19601f8201169050808301925050505050509192919290803573ffffffffffffffffffffffffffffffffffffffff169060200190929190803573ffffffffffffffffffffffffffffffffffffffff169060200190929190505050610721565b005b61039e6004803603604081101561034757600080fd5b8101908080602001906001806020026040519081016040528092919082600160200280828437600081840152601f19601f82011690508083019250505050505091929192908035906020019092919050505061097d565b005b6103a8611030565b604051808273ffffffffffffffffffffffffffffffffffffffff1673ffffffffffffffffffffffffffffffffffffffff16815260200191505060405180910390f35b6104576004803603604081101561040057600080fd5b8101908080602001906001806020026040519081016040528092919082600160200280828437600081840152601f19601f820116905080830192505050505050919291929080359060200190929190505050611056565b005b6104886004803603602081101561046f57600080fd5b810190808035600f0b906020019092919050505061160e565b604051808273ffffffffffffffffffffffffffffffffffffffff1673ffffffffffffffffffffffffffffffffffffffff16815260200191505060405180910390f35b6104d2611649565b6040518082600160200280838360005b838110156104fd5780820151818401526020810190506104e2565b5050505090500191505060405180910390f35b6105186116ca565b604051808273ffffffffffffffffffffffffffffffffffffffff1673ffffffffffffffffffffffffffffffffffffffff16815260200191505060405180910390f35b603360009054906101000a900473ffffffffffffffffffffffffffffffffffffffff1681565b6000603582600f0b6001811061059257fe5b0160009054906101000a900473ffffffffffffffffffffffffffffffffffffffff169050919050565b600181565b6106166105cb6116f4565b3084603460009054906101000a900473ffffffffffffffffffffffffffffffffffffffff1673ffffffffffffffffffffffffffffffffffffffff166116fc909392919063ffffffff16565b603360009054906101000a900473ffffffffffffffffffffffffffffffffffffffff1673ffffffffffffffffffffffffffffffffffffffff16635313b0e383604051806020016040528060008152506040518363ffffffff1660e01b81526004018083815260200182600160200280838360005b838110156106a557808201518184015260208101905061068a565b5050505090500192505050600060405180830381600087803b1580156106ca57600080fd5b505af11580156106de573d6000803e3d6000fd5b505050506106f36106ed6116f4565b82611802565b5050565b6000603360009054906101000a900473ffffffffffffffffffffffffffffffffffffffff16905090565b600060019054906101000a900460ff1680610740575061073f611b15565b5b8061075757506000809054906101000a900460ff16155b6107ac576040517f08c379a000000000000000000000000000000000000000000000000000000000815260040180806020018281038252602e81526020018061208f602e913960400191505060405180910390fd5b60008060019054906101000a900460ff1615905080156107fc576001600060016101000a81548160ff02191690831515021790555060016000806101000a81548160ff0219169083151502179055505b82603360006101000a81548173ffffffffffffffffffffffffffffffffffffffff021916908373ffffffffffffffffffffffffffffffffffffffff16021790555081603460006101000a81548173ffffffffffffffffffffffffffffffffffffffff021916908373ffffffffffffffffffffffffffffffffffffffff16021790555060008090505b60018110156109545785816001811061089957fe5b6020020151603582600181106108ab57fe5b0160006101000a81548173ffffffffffffffffffffffffffffffffffffffff021916908373ffffffffffffffffffffffffffffffffffffffff1602179055508481600181106108f657fe5b60200201516036826001811061090857fe5b0160006101000a81548173ffffffffffffffffffffffffffffffffffffffff021916908373ffffffffffffffffffffffffffffffffffffffff1602179055508080600101915050610884565b5080156109765760008060016101000a81548160ff0219169083151502179055505b5050505050565b610985612029565b60405180602001604052806000815250905060008090505b6001811015610e3a5760008482600181106109b457fe5b602002015114156109c457610e2d565b610a366109cf6116f4565b308684600181106109dc57fe5b6020020151603685600181106109ee57fe5b0160009054906101000a900473ffffffffffffffffffffffffffffffffffffffff1673ffffffffffffffffffffffffffffffffffffffff166116fc909392919063ffffffff16565b60368160018110610a4357fe5b0160009054906101000a900473ffffffffffffffffffffffffffffffffffffffff1673ffffffffffffffffffffffffffffffffffffffff1663095ea7b360358360018110610a8d57fe5b0160009054906101000a900473ffffffffffffffffffffffffffffffffffffffff16868460018110610abb57fe5b60200201516040518363ffffffff1660e01b8152600401808373ffffffffffffffffffffffffffffffffffffffff1673ffffffffffffffffffffffffffffffffffffffff16815260200182815260200192505050602060405180830381600087803b158015610b2957600080fd5b505af1158015610b3d573d6000803e3d6000fd5b505050506040513d6020811015610b5357600080fd5b81019080805190602001909291905050505060358160018110610b7257fe5b0160009054906101000a900473ffffffffffffffffffffffffffffffffffffffff1673ffffffffffffffffffffffffffffffffffffffff1663b6b55f25858360018110610bbb57fe5b60200201516040518263ffffffff1660e01b815260040180828152602001915050600060405180830381600087803b158015610bf657600080fd5b505af1158015610c0a573d6000803e3d6000fd5b5050505060358160018110610c1b57fe5b0160009054906101000a900473ffffffffffffffffffffffffffffffffffffffff1673ffffffffffffffffffffffffffffffffffffffff166370a08231306040518263ffffffff1660e01b8152600401808273ffffffffffffffffffffffffffffffffffffffff1673ffffffffffffffffffffffffffffffffffffffff16815260200191505060206040518083038186803b158015610cb957600080fd5b505afa158015610ccd573d6000803e3d6000fd5b505050506040513d6020811015610ce357600080fd5b8101908080519060200190929190505050828260018110610d0057fe5b60200201818152505060358160018110610d1657fe5b0160009054906101000a900473ffffffffffffffffffffffffffffffffffffffff1673ffffffffffffffffffffffffffffffffffffffff1663095ea7b3603360009054906101000a900473ffffffffffffffffffffffffffffffffffffffff16848460018110610d8257fe5b60200201516040518363ffffffff1660e01b8152600401808373ffffffffffffffffffffffffffffffffffffffff1673ffffffffffffffffffffffffffffffffffffffff16815260200182815260200192505050602060405180830381600087803b158015610df057600080fd5b505af1158015610e04573d6000803e3d6000fd5b505050506040513d6020811015610e1a57600080fd5b8101908080519060200190929190505050505b808060010191505061099d565b50603360009054906101000a900473ffffffffffffffffffffffffffffffffffffffff1673ffffffffffffffffffffffffffffffffffffffff16639cfad46282846040518363ffffffff1660e01b81526004018083600160200280838360005b83811015610eb5578082015181840152602081019050610e9a565b5050505090500182815260200192505050600060405180830381600087803b158015610ee057600080fd5b505af1158015610ef4573d6000803e3d6000fd5b505050506000603460009054906101000a900473ffffffffffffffffffffffffffffffffffffffff1673ffffffffffffffffffffffffffffffffffffffff166370a08231306040518263ffffffff1660e01b8152600401808273ffffffffffffffffffffffffffffffffffffffff1673ffffffffffffffffffffffffffffffffffffffff16815260200191505060206040518083038186803b158015610f9957600080fd5b505afa158015610fad573d6000803e3d6000fd5b505050506040513d6020811015610fc357600080fd5b8101908080519060200190929190505050905061102a610fe16116f4565b82603460009054906101000a900473ffffffffffffffffffffffffffffffffffffffff1673ffffffffffffffffffffffffffffffffffffffff16611b2c9092919063ffffffff16565b50505050565b603460009054906101000a900473ffffffffffffffffffffffffffffffffffffffff1681565b61105e612029565b60405180602001604052806000815250905060008090505b60018110156111ac57600084826001811061108d57fe5b6020020151111561119f576000603582600181106110a757fe5b0160009054906101000a900473ffffffffffffffffffffffffffffffffffffffff1673ffffffffffffffffffffffffffffffffffffffff166377c7b8fc6040518163ffffffff1660e01b815260040160206040518083038186803b15801561110e57600080fd5b505afa158015611122573d6000803e3d6000fd5b505050506040513d602081101561113857600080fd5b810190808051906020019092919050505090506111888161117a670de0b6b3a764000088866001811061116757fe5b6020020151611bfd90919063ffffffff16565b611c8390919063ffffffff16565b83836001811061119457fe5b602002018181525050505b8080600101915050611076565b506000603460009054906101000a900473ffffffffffffffffffffffffffffffffffffffff1673ffffffffffffffffffffffffffffffffffffffff166370a082316111f56116f4565b6040518263ffffffff1660e01b8152600401808273ffffffffffffffffffffffffffffffffffffffff1673ffffffffffffffffffffffffffffffffffffffff16815260200191505060206040518083038186803b15801561125557600080fd5b505afa158015611269573d6000803e3d6000fd5b505050506040513d602081101561127f57600080fd5b810190808051906020019092919050505090508281111561129e578290505b6112f46112a96116f4565b3083603460009054906101000a900473ffffffffffffffffffffffffffffffffffffffff1673ffffffffffffffffffffffffffffffffffffffff166116fc909392919063ffffffff16565b603460009054906101000a900473ffffffffffffffffffffffffffffffffffffffff1673ffffffffffffffffffffffffffffffffffffffff1663095ea7b3603360009054906101000a900473ffffffffffffffffffffffffffffffffffffffff16836040518363ffffffff1660e01b8152600401808373ffffffffffffffffffffffffffffffffffffffff1673ffffffffffffffffffffffffffffffffffffffff16815260200182815260200192505050602060405180830381600087803b1580156113bf57600080fd5b505af11580156113d3573d6000803e3d6000fd5b505050506040513d60208110156113e957600080fd5b810190808051906020019092919050505050603360009054906101000a900473ffffffffffffffffffffffffffffffffffffffff1673ffffffffffffffffffffffffffffffffffffffff1663aead32b583856040518363ffffffff1660e01b81526004018083600160200280838360005b8381101561147557808201518184015260208101905061145a565b5050505090500182815260200192505050600060405180830381600087803b1580156114a057600080fd5b505af11580156114b4573d6000803e3d6000fd5b50505050603460009054906101000a900473ffffffffffffffffffffffffffffffffffffffff1673ffffffffffffffffffffffffffffffffffffffff166370a08231306040518263ffffffff1660e01b8152600401808273ffffffffffffffffffffffffffffffffffffffff1673ffffffffffffffffffffffffffffffffffffffff16815260200191505060206040518083038186803b15801561155757600080fd5b505afa15801561156b573d6000803e3d6000fd5b505050506040513d602081101561158157600080fd5b810190808051906020019092919050505090506115e861159f6116f4565b82603460009054906101000a900473ffffffffffffffffffffffffffffffffffffffff1673ffffffffffffffffffffffffffffffffffffffff16611b2c9092919063ffffffff16565b6116086115f36116f4565b60405180602001604052806000815250611802565b50505050565b6000603682600f0b6001811061162057fe5b0160009054906101000a900473ffffffffffffffffffffffffffffffffffffffff169050919050565b61165161204b565b60366001806020026040519081016040528092919082600180156116c0576020028201915b8160009054906101000a900473ffffffffffffffffffffffffffffffffffffffff1673ffffffffffffffffffffffffffffffffffffffff1681526020019060010190808311611676575b5050505050905090565b6000603460009054906101000a900473ffffffffffffffffffffffffffffffffffffffff16905090565b600033905090565b6117fc848573ffffffffffffffffffffffffffffffffffffffff166323b872dd905060e01b858585604051602401808473ffffffffffffffffffffffffffffffffffffffff1673ffffffffffffffffffffffffffffffffffffffff1681526020018373ffffffffffffffffffffffffffffffffffffffff1673ffffffffffffffffffffffffffffffffffffffff1681526020018281526020019350505050604051602081830303815290604052907bffffffffffffffffffffffffffffffffffffffffffffffffffffffff19166020820180517bffffffffffffffffffffffffffffffffffffffffffffffffffffffff8381831617835250505050611ccd565b50505050565b60008090505b6001811015611b105760006035826001811061182057fe5b0160009054906101000a900473ffffffffffffffffffffffffffffffffffffffff16905060008173ffffffffffffffffffffffffffffffffffffffff166370a08231306040518263ffffffff1660e01b8152600401808273ffffffffffffffffffffffffffffffffffffffff1673ffffffffffffffffffffffffffffffffffffffff16815260200191505060206040518083038186803b1580156118c357600080fd5b505afa1580156118d7573d6000803e3d6000fd5b505050506040513d60208110156118ed57600080fd5b810190808051906020019092919050505090506000811415611910575050611b03565b8173ffffffffffffffffffffffffffffffffffffffff16632e1a7d4d826040518263ffffffff1660e01b815260040180828152602001915050600060405180830381600087803b15801561196357600080fd5b505af1158015611977573d6000803e3d6000fd5b5050505060006036846001811061198a57fe5b0160009054906101000a900473ffffffffffffffffffffffffffffffffffffffff16905060008173ffffffffffffffffffffffffffffffffffffffff166370a08231306040518263ffffffff1660e01b8152600401808273ffffffffffffffffffffffffffffffffffffffff1673ffffffffffffffffffffffffffffffffffffffff16815260200191505060206040518083038186803b158015611a2d57600080fd5b505afa158015611a41573d6000803e3d6000fd5b505050506040513d6020811015611a5757600080fd5b81019080805190602001909291905050509050858560018110611a7657fe5b6020020151811015611ad3576040517f08c379a00000000000000000000000000000000000000000000000000000000081526004018080602001828103825260258152602001806120bd6025913960400191505060405180910390fd5b611afe87828473ffffffffffffffffffffffffffffffffffffffff16611b2c9092919063ffffffff16565b505050505b8080600101915050611808565b505050565b6000803090506000813b9050600081149250505090565b611bf8838473ffffffffffffffffffffffffffffffffffffffff1663a9059cbb905060e01b8484604051602401808373ffffffffffffffffffffffffffffffffffffffff1673ffffffffffffffffffffffffffffffffffffffff16815260200182815260200192505050604051602081830303815290604052907bffffffffffffffffffffffffffffffffffffffffffffffffffffffff19166020820180517bffffffffffffffffffffffffffffffffffffffffffffffffffffffff8381831617835250505050611ccd565b505050565b600080831415611c105760009050611c7d565b6000828402905082848281611c2157fe5b0414611c78576040517f08c379a000000000000000000000000000000000000000000000000000000000815260040180806020018281038252602181526020018061206e6021913960400191505060405180910390fd5b809150505b92915050565b6000611cc583836040518060400160405280601a81526020017f536166654d6174683a206469766973696f6e206279207a65726f000000000000815250611f18565b905092915050565b611cec8273ffffffffffffffffffffffffffffffffffffffff16611fde565b611d5e576040517f08c379a000000000000000000000000000000000000000000000000000000000815260040180806020018281038252601f8152602001807f5361666545524332303a2063616c6c20746f206e6f6e2d636f6e74726163740081525060200191505060405180910390fd5b600060608373ffffffffffffffffffffffffffffffffffffffff16836040518082805190602001908083835b60208310611dad5780518252602082019150602081019050602083039250611d8a565b6001836020036101000a0380198251168184511680821785525050505050509050019150506000604051808303816000865af19150503d8060008114611e0f576040519150601f19603f3d011682016040523d82523d6000602084013e611e14565b606091505b509150915081611e8c576040517f08c379a00000000000000000000000000000000000000000000000000000000081526004018080602001828103825260208152602001807f5361666545524332303a206c6f772d6c6576656c2063616c6c206661696c656481525060200191505060405180910390fd5b600081511115611f1257808060200190516020811015611eab57600080fd5b8101908080519060200190929190505050611f11576040517f08c379a000000000000000000000000000000000000000000000000000000000815260040180806020018281038252602a8152602001806120e2602a913960400191505060405180910390fd5b5b50505050565b60008083118290611fc4576040517f08c379a00000000000000000000000000000000000000000000000000000000081526004018080602001828103825283818151815260200191508051906020019080838360005b83811015611f89578082015181840152602081019050611f6e565b50505050905090810190601f168015611fb65780820380516001836020036101000a031916815260200191505b509250505060405180910390fd5b506000838581611fd057fe5b049050809150509392505050565b60008060007fc5d2460186f7233c927e7db2dcc703c0e500b653ca82273b7bfad8045d85a47060001b9050833f915080821415801561202057506000801b8214155b92505050919050565b6040518060200160405280600190602082028038833980820191505090505090565b604051806020016040528060019060208202803883398082019150509050509056fe536166654d6174683a206d756c7469706c69636174696f6e206f766572666c6f77436f6e747261637420696e7374616e63652068617320616c7265616479206265656e20696e697469616c697a65644e6f7420656e6f75676820636f696e732077697468647261776e20696e204465706f7369745361666545524332303a204552433230206f7065726174696f6e20646964206e6f742073756363656564a265627a7a723158202bc13c12b2beb7d9ae0cc8f0772e8324a51ebf9d17258bdba65231103a8ee72c64736f6c634300050c0032",
  "source": "pragma solidity ^0.5.12;\n\nimport \"@openzeppelin/upgrades/contracts/Initializable.sol\";\nimport \"@openzeppelin/contracts-ethereum-package/contracts/GSN/Context.sol\";\n\nimport \"@openzeppelin/contracts-ethereum-package/contracts/token/ERC20/IERC20.sol\";\nimport \"@openzeppelin/contracts-ethereum-package/contracts/token/ERC20/SafeERC20.sol\";\nimport \"@openzeppelin/contracts-ethereum-package/contracts/math/SafeMath.sol\";\n\nimport \"../../Interfaces/ICurveFi_DepositY.sol\";\nimport \"../../Interfaces/ICurveFi_SwapY.sol\";\nimport \"../../Interfaces/IYERC20.sol\";\n\n/** \n * @dev Test stub for the implementation of Curve.Fi deposit contract for Y-pool.\n * @dev Original code is located in official repository:\n * https://github.com/curvefi/curve-contract/blob/master/contracts/pools/y/DepositY.vy\n */\ncontract Stub_CurveFi_DepositY is ICurveFi_DepositY, Initializable, Context {\n    using SafeMath for uint256;\n    using SafeERC20 for IERC20;\n\n    uint256 public constant N_COINS = 1;\n\n    //Curve.Fi Swap address\n    address public __curve;\n    //Curve.Fi LP token\n    address public __token;\n    address[N_COINS] __coins;\n    address[N_COINS] __underlying;\n\n    function initialize(address[N_COINS] memory _coins, address[N_COINS] memory _underlying_coins, address _curve, address _token) public initializer {\n        __curve = _curve;\n        __token = _token;\n        for (uint256 i=0; i < N_COINS; i++){\n            __coins[i] = _coins[i];\n            __underlying[i] = _underlying_coins[i];\n        }\n    }\n\n    function add_liquidity (uint256[N_COINS] memory uamounts, uint256 min_mint_amount) public {\n        uint256[N_COINS] memory amounts = [uint256(0)];\n\n        for (uint256 i = 0; i < uamounts.length; i++) {\n            if (uamounts[i] == 0) continue;\n\n            IERC20(__underlying[i]).safeTransferFrom(_msgSender(), address(this), uamounts[i]);\n\n            //Mint if needed\n            IERC20(__underlying[i]).approve(__coins[i], uamounts[i]);\n            IYERC20(__coins[i]).deposit(uamounts[i]);\n            \n            amounts[i] = IYERC20(__coins[i]).balanceOf(address(this));\n            IERC20(__coins[i]).approve(__curve, amounts[i]);\n        }\n        ICurveFi_SwapY(__curve).add_liquidity(amounts, min_mint_amount);\n\n        uint256 tokens = IERC20(__token).balanceOf(address(this));\n        IERC20(__token).safeTransfer(_msgSender(), tokens);\n    }\n    \n    function remove_liquidity (uint256 _amount, uint256[N_COINS] memory min_uamounts) public {\n        IERC20(__token).safeTransferFrom(_msgSender(), address(this), _amount);\n        ICurveFi_SwapY(__curve).remove_liquidity(_amount, [uint256(0)]);\n        _send_all(_msgSender(), min_uamounts);\n    }\n\n    function remove_liquidity_imbalance(uint256[N_COINS] memory uamounts, uint256 max_burn_amount) public {\n        uint256[N_COINS] memory amounts = [uint256(0)];\n\n        for (uint256 i = 0; i < uamounts.length; i++) {\n            if (uamounts[i] > 0) {\n                uint256 rate = IYERC20(__coins[i]).getPricePerFullShare();\n                amounts[i] = uamounts[i].mul(1e18).div(rate);\n            }\n        }\n\n        //Transfrer max tokens in\n        uint256 _tokens = IERC20(__token).balanceOf(_msgSender());\n        if (_tokens > max_burn_amount) _tokens = max_burn_amount;\n\n        IERC20(__token).safeTransferFrom(_msgSender(), address(this), _tokens);\n\n        IERC20(__token).approve(__curve, _tokens);\n        ICurveFi_SwapY(__curve).remove_liquidity_imbalance(amounts, max_burn_amount);\n\n        //Transfer unused tokens back\n        _tokens = IERC20(__token).balanceOf(address(this));\n        IERC20(__token).safeTransfer(_msgSender(), _tokens);\n\n        //Unwrap and transfer all the coins we've got\n        _send_all(_msgSender(), [uint256(0)]);\n    }\n\n    function coins(int128 i) public view returns (address) {\n        return __coins[uint256(i)];\n    }\n\n    function underlying_coins(int128 i) public view returns (address) {\n        return __underlying[uint256(i)];\n    }\n\n    function underlying_coins() public view returns (address[N_COINS] memory) {\n        return __underlying;\n    }\n\n    function curve() public view returns (address) {\n        return __curve;\n    }\n\n    function token() public view returns (address) {\n        return __token;\n    }\n\n    function _send_all(address _addr, uint256[N_COINS] memory min_uamounts) internal {\n        for (uint256 i = 0; i < N_COINS; i++) {\n            address _coin = __coins[i];\n            uint256 _balance = IYERC20(_coin).balanceOf(address(this));\n\n            if (_balance == 0) { //Do nothing for 0 coins\n                continue;\n            }\n\n            IYERC20(_coin).withdraw(_balance);\n\n            address _ucoin = __underlying[i];\n            uint256 _uamount = IERC20(_ucoin).balanceOf(address(this));\n            require(_uamount >= min_uamounts[i], \"Not enough coins withdrawn in Deposit\");\n            IERC20(_ucoin).safeTransfer(_addr, _uamount);\n        }        \n    }\n}",
  "sourcePath": "/Users/adityabharti/kosenai/contracts/test/Stub_CurveFi_DepositY.sol",
  "compiler": {
    "name": "solc",
    "version": "0.5.12+commit.7709ece9.Emscripten.clang"
  },
  "schemaVersion": "3.3.4",
  "updatedAt": "2022-04-24T17:59:36.804Z",
  "devdoc": {
    "details": "Test stub for the implementation of Curve.Fi deposit contract for Y-pool.Original code is located in official repository: https://github.com/curvefi/curve-contract/blob/master/contracts/pools/y/DepositY.vy",
    "methods": {}
  },
  "userdoc": {
    "methods": {}
  }
}