{
  "contractName": "Stub_CurveFi_Gauge",
  "abi": [
    {
      "constant": true,
      "inputs": [],
      "name": "INITIAL_RATE",
      "outputs": [
        {
          "internalType": "uint256",
          "name": "",
          "type": "uint256"
        }
      ],
      "payable": false,
      "stateMutability": "view",
      "type": "function"
    },
    {
      "constant": true,
      "inputs": [],
      "name": "TOKENLESS_PRODUCTION",
      "outputs": [
        {
          "internalType": "uint256",
          "name": "",
          "type": "uint256"
        }
      ],
      "payable": false,
      "stateMutability": "view",
      "type": "function"
    },
    {
      "constant": true,
      "inputs": [],
      "name": "YEAR",
      "outputs": [
        {
          "internalType": "uint256",
          "name": "",
          "type": "uint256"
        }
      ],
      "payable": false,
      "stateMutability": "view",
      "type": "function"
    },
    {
      "constant": true,
      "inputs": [],
      "name": "__crv_token",
      "outputs": [
        {
          "internalType": "address",
          "name": "",
          "type": "address"
        }
      ],
      "payable": false,
      "stateMutability": "view",
      "type": "function"
    },
    {
      "constant": true,
      "inputs": [
        {
          "internalType": "address",
          "name": "",
          "type": "address"
        }
      ],
      "name": "__integrate_fraction",
      "outputs": [
        {
          "internalType": "uint256",
          "name": "",
          "type": "uint256"
        }
      ],
      "payable": false,
      "stateMutability": "view",
      "type": "function"
    },
    {
      "constant": true,
      "inputs": [],
      "name": "__lp_token",
      "outputs": [
        {
          "internalType": "address",
          "name": "",
          "type": "address"
        }
      ],
      "payable": false,
      "stateMutability": "view",
      "type": "function"
    },
    {
      "constant": true,
      "inputs": [],
      "name": "__minter",
      "outputs": [
        {
          "internalType": "address",
          "name": "",
          "type": "address"
        }
      ],
      "payable": false,
      "stateMutability": "view",
      "type": "function"
    },
    {
      "constant": true,
      "inputs": [
        {
          "internalType": "address",
          "name": "",
          "type": "address"
        }
      ],
      "name": "balanceOf",
      "outputs": [
        {
          "internalType": "uint256",
          "name": "",
          "type": "uint256"
        }
      ],
      "payable": false,
      "stateMutability": "view",
      "type": "function"
    },
    {
      "constant": true,
      "inputs": [
        {
          "internalType": "address",
          "name": "",
          "type": "address"
        }
      ],
      "name": "integrate_checkpoint_of",
      "outputs": [
        {
          "internalType": "uint256",
          "name": "",
          "type": "uint256"
        }
      ],
      "payable": false,
      "stateMutability": "view",
      "type": "function"
    },
    {
      "constant": true,
      "inputs": [
        {
          "internalType": "uint256",
          "name": "",
          "type": "uint256"
        }
      ],
      "name": "integrate_inv_supply",
      "outputs": [
        {
          "internalType": "uint256",
          "name": "",
          "type": "uint256"
        }
      ],
      "payable": false,
      "stateMutability": "view",
      "type": "function"
    },
    {
      "constant": true,
      "inputs": [
        {
          "internalType": "address",
          "name": "",
          "type": "address"
        }
      ],
      "name": "integrate_inv_supply_of",
      "outputs": [
        {
          "internalType": "uint256",
          "name": "",
          "type": "uint256"
        }
      ],
      "payable": false,
      "stateMutability": "view",
      "type": "function"
    },
    {
      "constant": true,
      "inputs": [],
      "name": "totalSupply",
      "outputs": [
        {
          "internalType": "uint256",
          "name": "",
          "type": "uint256"
        }
      ],
      "payable": false,
      "stateMutability": "view",
      "type": "function"
    },
    {
      "constant": true,
      "inputs": [
        {
          "internalType": "address",
          "name": "",
          "type": "address"
        }
      ],
      "name": "working_balances",
      "outputs": [
        {
          "internalType": "uint256",
          "name": "",
          "type": "uint256"
        }
      ],
      "payable": false,
      "stateMutability": "view",
      "type": "function"
    },
    {
      "constant": true,
      "inputs": [],
      "name": "working_supply",
      "outputs": [
        {
          "internalType": "uint256",
          "name": "",
          "type": "uint256"
        }
      ],
      "payable": false,
      "stateMutability": "view",
      "type": "function"
    },
    {
      "constant": false,
      "inputs": [
        {
          "internalType": "address",
          "name": "lp_addr",
          "type": "address"
        },
        {
          "internalType": "address",
          "name": "_minter",
          "type": "address"
        }
      ],
      "name": "initialize",
      "outputs": [],
      "payable": false,
      "stateMutability": "nonpayable",
      "type": "function"
    },
    {
      "constant": false,
      "inputs": [
        {
          "internalType": "address",
          "name": "addr",
          "type": "address"
        }
      ],
      "name": "user_checkpoint",
      "outputs": [
        {
          "internalType": "bool",
          "name": "",
          "type": "bool"
        }
      ],
      "payable": false,
      "stateMutability": "nonpayable",
      "type": "function"
    },
    {
      "constant": false,
      "inputs": [
        {
          "internalType": "uint256",
          "name": "_value",
          "type": "uint256"
        }
      ],
      "name": "deposit",
      "outputs": [],
      "payable": false,
      "stateMutability": "nonpayable",
      "type": "function"
    },
    {
      "constant": false,
      "inputs": [
        {
          "internalType": "uint256",
          "name": "_value",
          "type": "uint256"
        }
      ],
      "name": "withdraw",
      "outputs": [],
      "payable": false,
      "stateMutability": "nonpayable",
      "type": "function"
    },
    {
      "constant": false,
      "inputs": [
        {
          "internalType": "address",
          "name": "addr",
          "type": "address"
        }
      ],
      "name": "claimable_tokens",
      "outputs": [
        {
          "internalType": "uint256",
          "name": "",
          "type": "uint256"
        }
      ],
      "payable": false,
      "stateMutability": "nonpayable",
      "type": "function"
    },
    {
      "constant": false,
      "inputs": [
        {
          "internalType": "address",
          "name": "addr",
          "type": "address"
        },
        {
          "internalType": "uint256",
          "name": "l",
          "type": "uint256"
        },
        {
          "internalType": "uint256",
          "name": "L",
          "type": "uint256"
        }
      ],
      "name": "_update_liquidity_limit",
      "outputs": [],
      "payable": false,
      "stateMutability": "nonpayable",
      "type": "function"
    },
    {
      "constant": true,
      "inputs": [],
      "name": "minter",
      "outputs": [
        {
          "internalType": "address",
          "name": "",
          "type": "address"
        }
      ],
      "payable": false,
      "stateMutability": "view",
      "type": "function"
    },
    {
      "constant": true,
      "inputs": [],
      "name": "crv_token",
      "outputs": [
        {
          "internalType": "address",
          "name": "",
          "type": "address"
        }
      ],
      "payable": false,
      "stateMutability": "view",
      "type": "function"
    },
    {
      "constant": true,
      "inputs": [],
      "name": "lp_token",
      "outputs": [
        {
          "internalType": "address",
          "name": "",
          "type": "address"
        }
      ],
      "payable": false,
      "stateMutability": "view",
      "type": "function"
    },
    {
      "constant": true,
      "inputs": [
        {
          "internalType": "address",
          "name": "_for",
          "type": "address"
        }
      ],
      "name": "integrate_fraction",
      "outputs": [
        {
          "internalType": "uint256",
          "name": "",
          "type": "uint256"
        }
      ],
      "payable": false,
      "stateMutability": "view",
      "type": "function"
    }
  ],
  "bytecode": "0x6080604052611774806100136000396000f3fe608060405234801561001057600080fd5b50600436106101585760003560e01c806370a08231116100c3578063a1b927911161007c578063a1b9279114610645578063b6b55f251461068f578063bd4aa747146106bd578063de263bfa146106db578063ed13a8e714610733578063fec8ee0c1461078b57610158565b806370a082311461049957806376d8b117146104f157806382c630661461053b5780638391454014610585578063863086f4146105a35780639bd324f2146105ed57610158565b8063331345831161011557806333134583146102c157806333de745314610319578063485cc955146103635780634b820093146103c75780634dbac733146104235780636628fce41461044157610158565b8063075461721461015d57806309400707146101a757806313ecb1ca146101ff57806317e280891461025757806318160ddd146102755780632e1a7d4d14610293575b600080fd5b6101656107cd565b604051808273ffffffffffffffffffffffffffffffffffffffff1673ffffffffffffffffffffffffffffffffffffffff16815260200191505060405180910390f35b6101e9600480360360208110156101bd57600080fd5b81019080803573ffffffffffffffffffffffffffffffffffffffff1690602001909291905050506107f7565b6040518082815260200191505060405180910390f35b6102416004803603602081101561021557600080fd5b81019080803573ffffffffffffffffffffffffffffffffffffffff169060200190929190505050610840565b6040518082815260200191505060405180910390f35b61025f610858565b6040518082815260200191505060405180910390f35b61027d61085e565b6040518082815260200191505060405180910390f35b6102bf600480360360208110156102a957600080fd5b8101908080359060200190929190505050610864565b005b610303600480360360208110156102d757600080fd5b81019080803573ffffffffffffffffffffffffffffffffffffffff169060200190929190505050610a7b565b6040518082815260200191505060405180910390f35b610321610bdc565b604051808273ffffffffffffffffffffffffffffffffffffffff1673ffffffffffffffffffffffffffffffffffffffff16815260200191505060405180910390f35b6103c56004803603604081101561037957600080fd5b81019080803573ffffffffffffffffffffffffffffffffffffffff169060200190929190803573ffffffffffffffffffffffffffffffffffffffff169060200190929190505050610c02565b005b610409600480360360208110156103dd57600080fd5b81019080803573ffffffffffffffffffffffffffffffffffffffff169060200190929190505050610d50565b604051808215151515815260200191505060405180910390f35b61042b610ea9565b6040518082815260200191505060405180910390f35b6104836004803603602081101561045757600080fd5b81019080803573ffffffffffffffffffffffffffffffffffffffff169060200190929190505050610ec5565b6040518082815260200191505060405180910390f35b6104db600480360360208110156104af57600080fd5b81019080803573ffffffffffffffffffffffffffffffffffffffff169060200190929190505050610edd565b6040518082815260200191505060405180910390f35b6104f9610ef5565b604051808273ffffffffffffffffffffffffffffffffffffffff1673ffffffffffffffffffffffffffffffffffffffff16815260200191505060405180910390f35b610543610f1f565b604051808273ffffffffffffffffffffffffffffffffffffffff1673ffffffffffffffffffffffffffffffffffffffff16815260200191505060405180910390f35b61058d610f49565b6040518082815260200191505060405180910390f35b6105ab610f51565b604051808273ffffffffffffffffffffffffffffffffffffffff1673ffffffffffffffffffffffffffffffffffffffff16815260200191505060405180910390f35b61062f6004803603602081101561060357600080fd5b81019080803573ffffffffffffffffffffffffffffffffffffffff169060200190929190505050610f77565b6040518082815260200191505060405180910390f35b61064d610f8f565b604051808273ffffffffffffffffffffffffffffffffffffffff1673ffffffffffffffffffffffffffffffffffffffff16815260200191505060405180910390f35b6106bb600480360360208110156106a557600080fd5b8101908080359060200190929190505050610fb5565b005b6106c5611209565b6040518082815260200191505060405180910390f35b61071d600480360360208110156106f157600080fd5b81019080803573ffffffffffffffffffffffffffffffffffffffff16906020019092919050505061120e565b6040518082815260200191505060405180910390f35b6107896004803603606081101561074957600080fd5b81019080803573ffffffffffffffffffffffffffffffffffffffff1690602001909291908035906020019092919080359060200190929190505050611226565b005b6107b7600480360360208110156107a157600080fd5b81019080803590602001909291905050506112d4565b6040518082815260200191505060405180910390f35b6000603560009054906101000a900473ffffffffffffffffffffffffffffffffffffffff16905090565b6000603a60008373ffffffffffffffffffffffffffffffffffffffff1673ffffffffffffffffffffffffffffffffffffffff168152602001908152602001600020549050919050565b603e6020528060005260406000206000915090505481565b603f5481565b60385481565b61087461086f6112ec565b6112f4565b6108cd81603960006108846112ec565b73ffffffffffffffffffffffffffffffffffffffff1673ffffffffffffffffffffffffffffffffffffffff168152602001908152602001600020546115ad90919063ffffffff16565b603960006108d96112ec565b73ffffffffffffffffffffffffffffffffffffffff1673ffffffffffffffffffffffffffffffffffffffff1681526020019081526020016000208190555061092c816038546115ad90919063ffffffff16565b60388190555061098c61093d6112ec565b603960006109496112ec565b73ffffffffffffffffffffffffffffffffffffffff1673ffffffffffffffffffffffffffffffffffffffff16815260200190815260200160002054603854611226565b603760009054906101000a900473ffffffffffffffffffffffffffffffffffffffff1673ffffffffffffffffffffffffffffffffffffffff1663a9059cbb6109d26112ec565b836040518363ffffffff1660e01b8152600401808373ffffffffffffffffffffffffffffffffffffffff1673ffffffffffffffffffffffffffffffffffffffff16815260200182815260200192505050602060405180830381600087803b158015610a3c57600080fd5b505af1158015610a50573d6000803e3d6000fd5b505050506040513d6020811015610a6657600080fd5b81019080805190602001909291905050505050565b6000610a86826112f4565b603560009054906101000a900473ffffffffffffffffffffffffffffffffffffffff1673ffffffffffffffffffffffffffffffffffffffff16638b752bb083306040518363ffffffff1660e01b8152600401808373ffffffffffffffffffffffffffffffffffffffff1673ffffffffffffffffffffffffffffffffffffffff1681526020018273ffffffffffffffffffffffffffffffffffffffff1673ffffffffffffffffffffffffffffffffffffffff1681526020019250505060206040518083038186803b158015610b5957600080fd5b505afa158015610b6d573d6000803e3d6000fd5b505050506040513d6020811015610b8357600080fd5b8101908080519060200190929190505050603a60008473ffffffffffffffffffffffffffffffffffffffff1673ffffffffffffffffffffffffffffffffffffffff16815260200190815260200160002054039050919050565b603560009054906101000a900473ffffffffffffffffffffffffffffffffffffffff1681565b80603560006101000a81548173ffffffffffffffffffffffffffffffffffffffff021916908373ffffffffffffffffffffffffffffffffffffffff16021790555081603760006101000a81548173ffffffffffffffffffffffffffffffffffffffff021916908373ffffffffffffffffffffffffffffffffffffffff1602179055508073ffffffffffffffffffffffffffffffffffffffff1663fc0c546a6040518163ffffffff1660e01b815260040160206040518083038186803b158015610cca57600080fd5b505afa158015610cde573d6000803e3d6000fd5b505050506040513d6020811015610cf457600080fd5b8101908080519060200190929190505050603660006101000a81548173ffffffffffffffffffffffffffffffffffffffff021916908373ffffffffffffffffffffffffffffffffffffffff160217905550426034819055505050565b60008173ffffffffffffffffffffffffffffffffffffffff163373ffffffffffffffffffffffffffffffffffffffff161480610dd95750603560009054906101000a900473ffffffffffffffffffffffffffffffffffffffff1673ffffffffffffffffffffffffffffffffffffffff163373ffffffffffffffffffffffffffffffffffffffff16145b610e4b576040517f08c379a00000000000000000000000000000000000000000000000000000000081526004018080602001828103825260138152602001807f556e617574686f72697a6564206d696e7465720000000000000000000000000081525060200191505060405180910390fd5b610e54826112f4565b610ea082603960008573ffffffffffffffffffffffffffffffffffffffff1673ffffffffffffffffffffffffffffffffffffffff16815260200190815260200160002054603854611226565b60019050919050565b6301e133806ae3526657d187e01cec000081610ec157fe5b0481565b603a6020528060005260406000206000915090505481565b60396020528060005260406000206000915090505481565b6000603660009054906101000a900473ffffffffffffffffffffffffffffffffffffffff16905090565b6000603760009054906101000a900473ffffffffffffffffffffffffffffffffffffffff16905090565b6301e1338081565b603660009054906101000a900473ffffffffffffffffffffffffffffffffffffffff1681565b603d6020528060005260406000206000915090505481565b603760009054906101000a900473ffffffffffffffffffffffffffffffffffffffff1681565b610fc5610fc06112ec565b6112f4565b60008114611206576110268160396000610fdd6112ec565b73ffffffffffffffffffffffffffffffffffffffff1673ffffffffffffffffffffffffffffffffffffffff168152602001908152602001600020546115f790919063ffffffff16565b603960006110326112ec565b73ffffffffffffffffffffffffffffffffffffffff1673ffffffffffffffffffffffffffffffffffffffff16815260200190815260200160002081905550611085816038546115f790919063ffffffff16565b6038819055506110e56110966112ec565b603960006110a26112ec565b73ffffffffffffffffffffffffffffffffffffffff1673ffffffffffffffffffffffffffffffffffffffff16815260200190815260200160002054603854611226565b603760009054906101000a900473ffffffffffffffffffffffffffffffffffffffff1673ffffffffffffffffffffffffffffffffffffffff166323b872dd61112b6112ec565b30846040518463ffffffff1660e01b8152600401808473ffffffffffffffffffffffffffffffffffffffff1673ffffffffffffffffffffffffffffffffffffffff1681526020018373ffffffffffffffffffffffffffffffffffffffff1673ffffffffffffffffffffffffffffffffffffffff1681526020018281526020019350505050602060405180830381600087803b1580156111c957600080fd5b505af11580156111dd573d6000803e3d6000fd5b505050506040513d60208110156111f357600080fd5b8101908080519060200190929190505050505b50565b602881565b603c6020528060005260406000206000915090505481565b60006064602884028161123557fe5b0490506000603e60008673ffffffffffffffffffffffffffffffffffffffff1673ffffffffffffffffffffffffffffffffffffffff16815260200190815260200160002054905081603e60008773ffffffffffffffffffffffffffffffffffffffff1673ffffffffffffffffffffffffffffffffffffffff168152602001908152602001600020819055508082603f540103603f819055505050505050565b603b6020528060005260406000206000915090505481565b600033905090565b6000603b6000603360009054906101000a90046fffffffffffffffffffffffffffffffff166fffffffffffffffffffffffffffffffff1681526020019081526020016000205490506000603e60008473ffffffffffffffffffffffffffffffffffffffff1673ffffffffffffffffffffffffffffffffffffffff1681526020019081526020016000205490506000603f5490506034544211156113ce5760006034544203905060008211156113cc5781816301e133806ae3526657d187e01cec0000816113bd57fe5b0402816113c657fe5b04840193505b505b6002830192506001603360008282829054906101000a90046fffffffffffffffffffffffffffffffff160192506101000a8154816fffffffffffffffffffffffffffffffff02191690836fffffffffffffffffffffffffffffffff1602179055504260348190555082603b6000603360009054906101000a90046fffffffffffffffffffffffffffffffff166fffffffffffffffffffffffffffffffff16815260200190815260200160002081905550670de0b6b3a7640000603c60008673ffffffffffffffffffffffffffffffffffffffff1673ffffffffffffffffffffffffffffffffffffffff1681526020019081526020016000205484038302816114d257fe5b04603a60008673ffffffffffffffffffffffffffffffffffffffff1673ffffffffffffffffffffffffffffffffffffffff1681526020019081526020016000206000828254019250508190555082603c60008673ffffffffffffffffffffffffffffffffffffffff1673ffffffffffffffffffffffffffffffffffffffff1681526020019081526020016000208190555042603d60008673ffffffffffffffffffffffffffffffffffffffff1673ffffffffffffffffffffffffffffffffffffffff1681526020019081526020016000208190555050505050565b60006115ef83836040518060400160405280601e81526020017f536166654d6174683a207375627472616374696f6e206f766572666c6f77000081525061167f565b905092915050565b600080828401905083811015611675576040517f08c379a000000000000000000000000000000000000000000000000000000000815260040180806020018281038252601b8152602001807f536166654d6174683a206164646974696f6e206f766572666c6f77000000000081525060200191505060405180910390fd5b8091505092915050565b600083831115829061172c576040517f08c379a00000000000000000000000000000000000000000000000000000000081526004018080602001828103825283818151815260200191508051906020019080838360005b838110156116f15780820151818401526020810190506116d6565b50505050905090810190601f16801561171e5780820380516001836020036101000a031916815260200191505b509250505060405180910390fd5b506000838503905080915050939250505056fea265627a7a72315820c260d86d60b4153dc37811b2e1b04484be957a98b89e696be01c7dc40e2b3f9e64736f6c634300050c0032",
  "source": "pragma solidity ^0.5.12;\n\nimport \"@openzeppelin/upgrades/contracts/Initializable.sol\";\nimport \"@openzeppelin/contracts-ethereum-package/contracts/GSN/Context.sol\";\n\nimport \"@openzeppelin/contracts-ethereum-package/contracts/token/ERC20/IERC20.sol\";\nimport \"@openzeppelin/contracts-ethereum-package/contracts/math/SafeMath.sol\";\n\nimport \"../../Interfaces/ICurveFi_Minter.sol\";\nimport \"../../Interfaces/ICurveFi_Gauge.sol\";\n\n/** \n * @dev Test stub for the implementation of Curve.Fi CRV staking Gauge contract.\n * @dev Original code is located in official repository:\n * https://github.com/curvefi/curve-dao-contracts/blob/master/contracts/LiquidityGauge.vy\n */\ncontract Stub_CurveFi_Gauge is ICurveFi_Gauge, Initializable, Context {\n    using SafeMath for uint256;\n\n    //CRV distribution number\n    uint128 period;\n\n    //Simplification to keep timestamp\n    uint256 period_timestamp;\n\n    //CRV Minter contract\n    address public __minter;\n\n    //CRV token\n    address public __crv_token;\n\n    //LP-token from Curve pool\n    address public __lp_token;\n    uint256 public totalSupply;\n\n    mapping(address => uint256) public balanceOf;\n\n    //Total shares of CRV for the user\n    mapping(address => uint256) public __integrate_fraction;\n\n    mapping (uint256 => uint256) public integrate_inv_supply;\n    mapping(address => uint256) public integrate_inv_supply_of;\n    mapping(address => uint256) public integrate_checkpoint_of;\n\n    mapping(address => uint256) public working_balances;\n    uint256 public working_supply;\n\n    uint256 public constant TOKENLESS_PRODUCTION = 40;\n\n    //Rate taken from CRV\n    uint256 public constant YEAR = 365 * 24 * 60 * 60;\n    uint256 public constant INITIAL_RATE = (274_815_283 * (10 ** 18)) / YEAR;\n\n\n    function initialize(address lp_addr, address _minter) public {\n        __minter = _minter;\n        __lp_token = lp_addr;\n\n        __crv_token = ICurveFi_Minter(_minter).token();\n        period_timestamp = block.timestamp;\n    }\n\n    function user_checkpoint(address addr) public returns(bool) {\n        require(msg.sender == addr || msg.sender == __minter, \"Unauthorized minter\");\n        _checkpoint(addr);\n        _update_liquidity_limit(addr, balanceOf[addr], totalSupply);\n        return true;\n    }\n \n    //Deposit Curve LP tokens into the Gauge\n    function deposit(uint256 _value) public {\n        _checkpoint(_msgSender());\n\n        if (_value != 0) {\n            balanceOf[_msgSender()] = balanceOf[_msgSender()].add(_value);\n            totalSupply = totalSupply.add(_value);\n\n            _update_liquidity_limit(_msgSender(), balanceOf[_msgSender()], totalSupply);\n\n            IERC20(__lp_token).transferFrom(_msgSender(), address(this), _value);\n        }\n    }\n\n    //Withdraw Curve LP tokens back to the user\n    function withdraw(uint256 _value) public {\n        _checkpoint(_msgSender());\n\n        balanceOf[_msgSender()] = balanceOf[_msgSender()].sub(_value);\n        totalSupply = totalSupply.sub(_value);\n\n        _update_liquidity_limit(_msgSender(), balanceOf[_msgSender()], totalSupply);\n\n        IERC20(__lp_token).transfer(_msgSender(), _value);\n    }\n\n    //Get CRV available for the user\n    function claimable_tokens(address addr) external returns (uint256) {\n        _checkpoint(addr);\n        return __integrate_fraction[addr] - ICurveFi_Minter(__minter).minted(addr, address(this));\n    }\n\n    //Checkpoint for a user\n    function _checkpoint(address addr) internal {\n        uint256 _integrate_inv_supply = integrate_inv_supply[period];\n        uint256 _working_balance = working_balances[addr];\n        uint256 _working_supply = working_supply;\n\n        // Update integral of 1/supply\n        if (block.timestamp > period_timestamp) {\n            //Originally rewards are minted with complex calculations for a week.\n            //It is simplified to have weight equal 1 and  rate equal INITIAL_RATE and period in 1 block\n            uint256 dt = block.timestamp - period_timestamp;\n\n            if (_working_supply > 0) {\n                _integrate_inv_supply += INITIAL_RATE * dt / _working_supply;\n            }\n        }\n        //Simplification - always mint a couple of tokens\n        _integrate_inv_supply += 2;\n\n        period += 1;\n        period_timestamp = block.timestamp;\n        integrate_inv_supply[period] = _integrate_inv_supply;\n        // Update user-specific integrals\n        __integrate_fraction[addr] += _working_balance * (_integrate_inv_supply - integrate_inv_supply_of[addr]) / 10 ** 18;\n        integrate_inv_supply_of[addr] = _integrate_inv_supply;\n        integrate_checkpoint_of[addr] = block.timestamp;\n    }\n\n    /**\n     * @notice Calculate limits which depend on the amount of CRV token per-user.\n                Effectively it calculates working balances to apply amplification\n                of CRV production by CRV\n     * @param addr User address\n     * @param l User's amount of liquidity (LP tokens)\n     * @param L Total amount of liquidity (LP tokens)\n     */\n    function _update_liquidity_limit(address addr, uint256 l, uint256 L) public {\n        uint256 lim = l * TOKENLESS_PRODUCTION / 100;\n\n        uint256 old_bal = working_balances[addr];\n        working_balances[addr] = lim;\n        working_supply = working_supply + lim - old_bal;\n    }\n\n    function minter() public view returns(address) {\n        return __minter;\n    }\n\n    function crv_token() public view returns(address) {\n        return __crv_token;\n    }\n\n    function lp_token() public view returns(address) {\n        return __lp_token;\n    }\n\n    function integrate_fraction(address _for) public view returns(uint256) {\n        return __integrate_fraction[_for];\n    }\n}\n\n",
  "sourcePath": "/Users/adityabharti/kosenai/contracts/test/Stub_CurveFi_Gauge.sol",
  "compiler": {
    "name": "solc",
    "version": "0.5.12+commit.7709ece9.Emscripten.clang"
  },
  "schemaVersion": "3.3.4",
  "updatedAt": "2022-04-24T17:59:36.807Z",
  "devdoc": {
    "details": "Test stub for the implementation of Curve.Fi CRV staking Gauge contract.Original code is located in official repository: https://github.com/curvefi/curve-dao-contracts/blob/master/contracts/LiquidityGauge.vy",
    "methods": {
      "_update_liquidity_limit(address,uint256,uint256)": {
        "params": {
          "L": "Total amount of liquidity (LP tokens)",
          "addr": "User address",
          "l": "User's amount of liquidity (LP tokens)"
        }
      }
    }
  },
  "userdoc": {
    "methods": {
      "_update_liquidity_limit(address,uint256,uint256)": {
        "notice": "Calculate limits which depend on the amount of CRV token per-user. Effectively it calculates working balances to apply amplification of CRV production by CRV"
      }
    }
  }
}