{
  "contractName": "Vault",
  "abi": [
    {
      "anonymous": false,
      "inputs": [
        {
          "indexed": true,
          "internalType": "address",
          "name": "previousOwner",
          "type": "address"
        },
        {
          "indexed": true,
          "internalType": "address",
          "name": "newOwner",
          "type": "address"
        }
      ],
      "name": "OwnershipTransferred",
      "type": "event"
    },
    {
      "constant": true,
      "inputs": [],
      "name": "curveFi_CRVMinter",
      "outputs": [
        {
          "internalType": "address",
          "name": "",
          "type": "address"
        }
      ],
      "payable": false,
      "stateMutability": "view",
      "type": "function"
    },
    {
      "constant": true,
      "inputs": [],
      "name": "curveFi_CRVToken",
      "outputs": [
        {
          "internalType": "address",
          "name": "",
          "type": "address"
        }
      ],
      "payable": false,
      "stateMutability": "view",
      "type": "function"
    },
    {
      "constant": true,
      "inputs": [],
      "name": "curveFi_Deposit",
      "outputs": [
        {
          "internalType": "address",
          "name": "",
          "type": "address"
        }
      ],
      "payable": false,
      "stateMutability": "view",
      "type": "function"
    },
    {
      "constant": true,
      "inputs": [],
      "name": "curveFi_LPGauge",
      "outputs": [
        {
          "internalType": "address",
          "name": "",
          "type": "address"
        }
      ],
      "payable": false,
      "stateMutability": "view",
      "type": "function"
    },
    {
      "constant": true,
      "inputs": [],
      "name": "curveFi_LPToken",
      "outputs": [
        {
          "internalType": "address",
          "name": "",
          "type": "address"
        }
      ],
      "payable": false,
      "stateMutability": "view",
      "type": "function"
    },
    {
      "constant": true,
      "inputs": [],
      "name": "curveFi_Swap",
      "outputs": [
        {
          "internalType": "address",
          "name": "",
          "type": "address"
        }
      ],
      "payable": false,
      "stateMutability": "view",
      "type": "function"
    },
    {
      "constant": true,
      "inputs": [],
      "name": "isOwner",
      "outputs": [
        {
          "internalType": "bool",
          "name": "",
          "type": "bool"
        }
      ],
      "payable": false,
      "stateMutability": "view",
      "type": "function"
    },
    {
      "constant": true,
      "inputs": [],
      "name": "owner",
      "outputs": [
        {
          "internalType": "address",
          "name": "",
          "type": "address"
        }
      ],
      "payable": false,
      "stateMutability": "view",
      "type": "function"
    },
    {
      "constant": false,
      "inputs": [],
      "name": "renounceOwnership",
      "outputs": [],
      "payable": false,
      "stateMutability": "nonpayable",
      "type": "function"
    },
    {
      "constant": false,
      "inputs": [
        {
          "internalType": "address",
          "name": "newOwner",
          "type": "address"
        }
      ],
      "name": "transferOwnership",
      "outputs": [],
      "payable": false,
      "stateMutability": "nonpayable",
      "type": "function"
    },
    {
      "constant": false,
      "inputs": [],
      "name": "initialize",
      "outputs": [],
      "payable": false,
      "stateMutability": "nonpayable",
      "type": "function"
    },
    {
      "constant": false,
      "inputs": [
        {
          "internalType": "address",
          "name": "sender",
          "type": "address"
        }
      ],
      "name": "initialize",
      "outputs": [],
      "payable": false,
      "stateMutability": "nonpayable",
      "type": "function"
    },
    {
      "constant": false,
      "inputs": [
        {
          "internalType": "address",
          "name": "_depositContract",
          "type": "address"
        },
        {
          "internalType": "address",
          "name": "_gaugeContract",
          "type": "address"
        },
        {
          "internalType": "address",
          "name": "_minterContract",
          "type": "address"
        }
      ],
      "name": "setup",
      "outputs": [],
      "payable": false,
      "stateMutability": "nonpayable",
      "type": "function"
    },
    {
      "constant": false,
      "inputs": [
        {
          "internalType": "uint256[1]",
          "name": "_amounts",
          "type": "uint256[1]"
        }
      ],
      "name": "deposit",
      "outputs": [],
      "payable": false,
      "stateMutability": "nonpayable",
      "type": "function"
    },
    {
      "constant": false,
      "inputs": [
        {
          "internalType": "uint256[1]",
          "name": "_amounts",
          "type": "uint256[1]"
        }
      ],
      "name": "withdraw",
      "outputs": [],
      "payable": false,
      "stateMutability": "nonpayable",
      "type": "function"
    },
    {
      "constant": true,
      "inputs": [],
      "name": "curveLPTokenStaked",
      "outputs": [
        {
          "internalType": "uint256",
          "name": "",
          "type": "uint256"
        }
      ],
      "payable": false,
      "stateMutability": "view",
      "type": "function"
    },
    {
      "constant": true,
      "inputs": [],
      "name": "curveLPTokenUnstaked",
      "outputs": [
        {
          "internalType": "uint256",
          "name": "",
          "type": "uint256"
        }
      ],
      "payable": false,
      "stateMutability": "view",
      "type": "function"
    },
    {
      "constant": true,
      "inputs": [],
      "name": "curveLPTokenBalance",
      "outputs": [
        {
          "internalType": "uint256",
          "name": "",
          "type": "uint256"
        }
      ],
      "payable": false,
      "stateMutability": "view",
      "type": "function"
    },
    {
      "constant": true,
      "inputs": [],
      "name": "balanceOfAll",
      "outputs": [
        {
          "internalType": "uint256[1]",
          "name": "balances",
          "type": "uint256[1]"
        }
      ],
      "payable": false,
      "stateMutability": "view",
      "type": "function"
    },
    {
      "constant": true,
      "inputs": [],
      "name": "normalizedBalance",
      "outputs": [
        {
          "internalType": "uint256",
          "name": "",
          "type": "uint256"
        }
      ],
      "payable": false,
      "stateMutability": "view",
      "type": "function"
    }
  ],
  "bytecode": "0x60806040526130eb806100136000396000f3fe608060405234801561001057600080fd5b506004361061012c5760003560e01c80638f32d59b116100ad578063cb78306a11610071578063cb78306a1461048b578063cd53e95b146104f0578063dfda714a14610555578063e011262a14610573578063f2fde38b146105bd5761012c565b80638f32d59b1461037357806397aa80d514610395578063a3477c36146103b3578063be873f50146103fd578063c4d66de8146104475761012c565b806377b8b1c7116100f457806377b8b1c7146102075780637c2411461461028b5780638129fc1c146102d55780638141d266146102df5780638da5cb5b146103295761012c565b80631c60041614610131578063208e509f1461017b57806344f9c395146101c1578063628cb95e146101df578063715018a6146101fd575b600080fd5b610139610601565b604051808273ffffffffffffffffffffffffffffffffffffffff1673ffffffffffffffffffffffffffffffffffffffff16815260200191505060405180910390f35b610183610627565b6040518082600160200280838360005b838110156101ae578082015181840152602081019050610193565b5050505090500191505060405180910390f35b6101c9610a7b565b6040518082815260200191505060405180910390f35b6101e7610b5c565b6040518082815260200191505060405180910390f35b610205610c5f565b005b6102896004803603606081101561021d57600080fd5b81019080803573ffffffffffffffffffffffffffffffffffffffff169060200190929190803573ffffffffffffffffffffffffffffffffffffffff169060200190929190803573ffffffffffffffffffffffffffffffffffffffff169060200190929190505050610d9a565b005b610293611370565b604051808273ffffffffffffffffffffffffffffffffffffffff1673ffffffffffffffffffffffffffffffffffffffff16815260200191505060405180910390f35b6102dd611396565b005b6102e76114a5565b604051808273ffffffffffffffffffffffffffffffffffffffff1673ffffffffffffffffffffffffffffffffffffffff16815260200191505060405180910390f35b6103316114cb565b604051808273ffffffffffffffffffffffffffffffffffffffff1673ffffffffffffffffffffffffffffffffffffffff16815260200191505060405180910390f35b61037b6114f5565b604051808215151515815260200191505060405180910390f35b61039d611554565b6040518082815260200191505060405180910390f35b6103bb611587565b604051808273ffffffffffffffffffffffffffffffffffffffff1673ffffffffffffffffffffffffffffffffffffffff16815260200191505060405180910390f35b6104056115ad565b604051808273ffffffffffffffffffffffffffffffffffffffff1673ffffffffffffffffffffffffffffffffffffffff16815260200191505060405180910390f35b6104896004803603602081101561045d57600080fd5b81019080803573ffffffffffffffffffffffffffffffffffffffff1690602001909291905050506115d3565b005b6104ee600480360360208110156104a157600080fd5b8101908080602001906001806020026040519081016040528092919082600160200280828437600081840152601f19601f8201169050808301925050505050509192919290505050611791565b005b6105536004803603602081101561050657600080fd5b8101908080602001906001806020026040519081016040528092919082600160200280828437600081840152601f19601f8201169050808301925050505050509192919290505050611b9e565b005b61055d6120cf565b6040518082815260200191505060405180910390f35b61057b6121b0565b604051808273ffffffffffffffffffffffffffffffffffffffff1673ffffffffffffffffffffffffffffffffffffffff16815260200191505060405180910390f35b6105ff600480360360208110156105d357600080fd5b81019080803573ffffffffffffffffffffffffffffffffffffffff1690602001909291905050506121d6565b005b606760009054906101000a900473ffffffffffffffffffffffffffffffffffffffff1681565b61062f612f9d565b6000606660009054906101000a900473ffffffffffffffffffffffffffffffffffffffff1673ffffffffffffffffffffffffffffffffffffffff1663b739953e60006040518263ffffffff1660e01b81526004018082600f0b815260200191505060206040518083038186803b1580156106a857600080fd5b505afa1580156106bc573d6000803e3d6000fd5b505050506040513d60208110156106d257600080fd5b8101908080519060200190929190505050905060006106ef611554565b90506000606860009054906101000a900473ffffffffffffffffffffffffffffffffffffffff1673ffffffffffffffffffffffffffffffffffffffff166318160ddd6040518163ffffffff1660e01b815260040160206040518083038186803b15801561075b57600080fd5b505afa15801561076f573d6000803e3d6000fd5b505050506040513d602081101561078557600080fd5b810190808051906020019092919050505090506000811161080e576040517f08c379a00000000000000000000000000000000000000000000000000000000081526004018080602001828103825260198152602001807f4e6f204375727665204c5020746f6b656e73206d696e7465640000000000000081525060200191505060405180910390fd5b6000606760009054906101000a900473ffffffffffffffffffffffffffffffffffffffff1673ffffffffffffffffffffffffffffffffffffffff1663065a80d860006040518263ffffffff1660e01b81526004018082600f0b600f0b815260200191505060206040518083038186803b15801561088a57600080fd5b505afa15801561089e573d6000803e3d6000fd5b505050506040513d60208110156108b457600080fd5b810190808051906020019092919050505090506000606760009054906101000a900473ffffffffffffffffffffffffffffffffffffffff1673ffffffffffffffffffffffffffffffffffffffff166323746eb860006040518263ffffffff1660e01b81526004018082600f0b600f0b815260200191505060206040518083038186803b15801561094357600080fd5b505afa158015610957573d6000803e3d6000fd5b505050506040513d602081101561096d57600080fd5b8101908080519060200190929190505050905060006109a784610999878661225c90919063ffffffff16565b6122e290919063ffffffff16565b905060008273ffffffffffffffffffffffffffffffffffffffff166377c7b8fc6040518163ffffffff1660e01b815260040160206040518083038186803b1580156109f157600080fd5b505afa158015610a05573d6000803e3d6000fd5b505050506040513d6020811015610a1b57600080fd5b81019080805190602001909291905050509050610a5b670de0b6b3a7640000610a4d848461225c90919063ffffffff16565b6122e290919063ffffffff16565b88600060018110610a6857fe5b6020020181815250505050505050505090565b6000606960009054906101000a900473ffffffffffffffffffffffffffffffffffffffff1673ffffffffffffffffffffffffffffffffffffffff166370a08231306040518263ffffffff1660e01b8152600401808273ffffffffffffffffffffffffffffffffffffffff1673ffffffffffffffffffffffffffffffffffffffff16815260200191505060206040518083038186803b158015610b1c57600080fd5b505afa158015610b30573d6000803e3d6000fd5b505050506040513d6020811015610b4657600080fd5b8101908080519060200190929190505050905090565b600080606660009054906101000a900473ffffffffffffffffffffffffffffffffffffffff1673ffffffffffffffffffffffffffffffffffffffff1663b739953e60006040518263ffffffff1660e01b81526004018082600f0b815260200191505060206040518083038186803b158015610bd657600080fd5b505afa158015610bea573d6000803e3d6000fd5b505050506040513d6020811015610c0057600080fd5b81019080805190602001909291905050509050610c1b612f9d565b610c23610627565b90506000610c54610c458484600060018110610c3b57fe5b602002015161232c565b8261242f90919063ffffffff16565b905080935050505090565b610c676114f5565b610cd9576040517f08c379a00000000000000000000000000000000000000000000000000000000081526004018080602001828103825260208152602001807f4f776e61626c653a2063616c6c6572206973206e6f7420746865206f776e657281525060200191505060405180910390fd5b600073ffffffffffffffffffffffffffffffffffffffff16603360009054906101000a900473ffffffffffffffffffffffffffffffffffffffff1673ffffffffffffffffffffffffffffffffffffffff167f8be0079c531659141344cd1fd0a4f28419497f9722a3daafe3b4186f6b6457e060405160405180910390a36000603360006101000a81548173ffffffffffffffffffffffffffffffffffffffff021916908373ffffffffffffffffffffffffffffffffffffffff160217905550565b610da26114f5565b610e14576040517f08c379a00000000000000000000000000000000000000000000000000000000081526004018080602001828103825260208152602001807f4f776e61626c653a2063616c6c6572206973206e6f7420746865206f776e657281525060200191505060405180910390fd5b600073ffffffffffffffffffffffffffffffffffffffff168373ffffffffffffffffffffffffffffffffffffffff161415610e9a576040517f08c379a0000000000000000000000000000000000000000000000000000000008152600401808060200182810382526022815260200180612fc06022913960400191505060405180910390fd5b82606660006101000a81548173ffffffffffffffffffffffffffffffffffffffff021916908373ffffffffffffffffffffffffffffffffffffffff160217905550606660009054906101000a900473ffffffffffffffffffffffffffffffffffffffff1673ffffffffffffffffffffffffffffffffffffffff16637165485d6040518163ffffffff1660e01b815260040160206040518083038186803b158015610f4357600080fd5b505afa158015610f57573d6000803e3d6000fd5b505050506040513d6020811015610f6d57600080fd5b8101908080519060200190929190505050606760006101000a81548173ffffffffffffffffffffffffffffffffffffffff021916908373ffffffffffffffffffffffffffffffffffffffff16021790555081606960006101000a81548173ffffffffffffffffffffffffffffffffffffffff021916908373ffffffffffffffffffffffffffffffffffffffff160217905550606660009054906101000a900473ffffffffffffffffffffffffffffffffffffffff1673ffffffffffffffffffffffffffffffffffffffff1663fc0c546a6040518163ffffffff1660e01b815260040160206040518083038186803b15801561106757600080fd5b505afa15801561107b573d6000803e3d6000fd5b505050506040513d602081101561109157600080fd5b8101908080519060200190929190505050606860006101000a81548173ffffffffffffffffffffffffffffffffffffffff021916908373ffffffffffffffffffffffffffffffffffffffff160217905550606860009054906101000a900473ffffffffffffffffffffffffffffffffffffffff1673ffffffffffffffffffffffffffffffffffffffff16606960009054906101000a900473ffffffffffffffffffffffffffffffffffffffff1673ffffffffffffffffffffffffffffffffffffffff166382c630666040518163ffffffff1660e01b815260040160206040518083038186803b15801561118357600080fd5b505afa158015611197573d6000803e3d6000fd5b505050506040513d60208110156111ad57600080fd5b810190808051906020019092919050505073ffffffffffffffffffffffffffffffffffffffff1614611247576040517f08c379a000000000000000000000000000000000000000000000000000000000815260040180806020018281038252601e8152602001807f43757276654669204c5020746f6b656e7320646f206e6f74206d61746368000081525060200191505060405180910390fd5b80606a60006101000a81548173ffffffffffffffffffffffffffffffffffffffff021916908373ffffffffffffffffffffffffffffffffffffffff160217905550606960009054906101000a900473ffffffffffffffffffffffffffffffffffffffff1673ffffffffffffffffffffffffffffffffffffffff166376d8b1176040518163ffffffff1660e01b815260040160206040518083038186803b1580156112f057600080fd5b505afa158015611304573d6000803e3d6000fd5b505050506040513d602081101561131a57600080fd5b8101908080519060200190929190505050606b60006101000a81548173ffffffffffffffffffffffffffffffffffffffff021916908373ffffffffffffffffffffffffffffffffffffffff160217905550505050565b606a60009054906101000a900473ffffffffffffffffffffffffffffffffffffffff1681565b600060019054906101000a900460ff16806113b557506113b46124b7565b5b806113cc57506000809054906101000a900460ff16155b611421576040517f08c379a000000000000000000000000000000000000000000000000000000000815260040180806020018281038252602e815260200180613029602e913960400191505060405180910390fd5b60008060019054906101000a900460ff161590508015611471576001600060016101000a81548160ff02191690831515021790555060016000806101000a81548160ff0219169083151502179055505b61148161147c6124ce565b6115d3565b80156114a25760008060016101000a81548160ff0219169083151502179055505b50565b606b60009054906101000a900473ffffffffffffffffffffffffffffffffffffffff1681565b6000603360009054906101000a900473ffffffffffffffffffffffffffffffffffffffff16905090565b6000603360009054906101000a900473ffffffffffffffffffffffffffffffffffffffff1673ffffffffffffffffffffffffffffffffffffffff166115386124ce565b73ffffffffffffffffffffffffffffffffffffffff1614905090565b60008061155f610a7b565b9050600061156b6120cf565b9050611580828261242f90919063ffffffff16565b9250505090565b606860009054906101000a900473ffffffffffffffffffffffffffffffffffffffff1681565b606660009054906101000a900473ffffffffffffffffffffffffffffffffffffffff1681565b600060019054906101000a900460ff16806115f257506115f16124b7565b5b8061160957506000809054906101000a900460ff16155b61165e576040517f08c379a000000000000000000000000000000000000000000000000000000000815260040180806020018281038252602e815260200180613029602e913960400191505060405180910390fd5b60008060019054906101000a900460ff1615905080156116ae576001600060016101000a81548160ff02191690831515021790555060016000806101000a81548160ff0219169083151502179055505b81603360006101000a81548173ffffffffffffffffffffffffffffffffffffffff021916908373ffffffffffffffffffffffffffffffffffffffff160217905550603360009054906101000a900473ffffffffffffffffffffffffffffffffffffffff1673ffffffffffffffffffffffffffffffffffffffff16600073ffffffffffffffffffffffffffffffffffffffff167f8be0079c531659141344cd1fd0a4f28419497f9722a3daafe3b4186f6b6457e060405160405180910390a3801561178d5760008060016101000a81548160ff0219169083151502179055505b5050565b6000606660009054906101000a900473ffffffffffffffffffffffffffffffffffffffff1673ffffffffffffffffffffffffffffffffffffffff1663b739953e60006040518263ffffffff1660e01b81526004018082600f0b815260200191505060206040518083038186803b15801561180a57600080fd5b505afa15801561181e573d6000803e3d6000fd5b505050506040513d602081101561183457600080fd5b81019080805190602001909291905050509050600080611877611868848660006001811061185e57fe5b602002015161232c565b8361242f90919063ffffffff16565b91506000611884836124d6565b905060006118906120cf565b905060008111156118b1576118ae818361251d90919063ffffffff16565b91505b606960009054906101000a900473ffffffffffffffffffffffffffffffffffffffff1673ffffffffffffffffffffffffffffffffffffffff16632e1a7d4d836040518263ffffffff1660e01b815260040180828152602001915050600060405180830381600087803b15801561192657600080fd5b505af115801561193a573d6000803e3d6000fd5b505050506119ad606660009054906101000a900473ffffffffffffffffffffffffffffffffffffffff1683606860009054906101000a900473ffffffffffffffffffffffffffffffffffffffff1673ffffffffffffffffffffffffffffffffffffffff166125679092919063ffffffff16565b606660009054906101000a900473ffffffffffffffffffffffffffffffffffffffff1673ffffffffffffffffffffffffffffffffffffffff1663aead32b587846040518363ffffffff1660e01b81526004018083600160200280838360005b83811015611a27578082015181840152602081019050611a0c565b5050505090500182815260200192505050600060405180830381600087803b158015611a5257600080fd5b505af1158015611a66573d6000803e3d6000fd5b50505050600085905060008173ffffffffffffffffffffffffffffffffffffffff166370a08231306040518263ffffffff1660e01b8152600401808273ffffffffffffffffffffffffffffffffffffffff1673ffffffffffffffffffffffffffffffffffffffff16815260200191505060206040518083038186803b158015611aee57600080fd5b505afa158015611b02573d6000803e3d6000fd5b505050506040513d6020811015611b1857600080fd5b81019080805190602001909291905050509050600088600060018110611b3a57fe5b6020020151821115611b5d5788600060018110611b5357fe5b6020020151611b5f565b815b9050611b93611b6c6124ce565b828573ffffffffffffffffffffffffffffffffffffffff166127879092919063ffffffff16565b505050505050505050565b6000606660009054906101000a900473ffffffffffffffffffffffffffffffffffffffff1673ffffffffffffffffffffffffffffffffffffffff1663b739953e60006040518263ffffffff1660e01b81526004018082600f0b815260200191505060206040518083038186803b158015611c1757600080fd5b505afa158015611c2b573d6000803e3d6000fd5b505050506040513d6020811015611c4157600080fd5b81019080805190602001909291905050509050611c99611c5f6124ce565b3084600060018110611c6d57fe5b60200201518473ffffffffffffffffffffffffffffffffffffffff16612858909392919063ffffffff16565b611cf7606660009054906101000a900473ffffffffffffffffffffffffffffffffffffffff1683600060018110611ccc57fe5b60200201518373ffffffffffffffffffffffffffffffffffffffff166125679092919063ffffffff16565b606660009054906101000a900473ffffffffffffffffffffffffffffffffffffffff1673ffffffffffffffffffffffffffffffffffffffff16639cfad4628360006040518363ffffffff1660e01b81526004018083600160200280838360005b83811015611d72578082015181840152602081019050611d57565b5050505090500182815260200192505050600060405180830381600087803b158015611d9d57600080fd5b505af1158015611db1573d6000803e3d6000fd5b505050506000606860009054906101000a900473ffffffffffffffffffffffffffffffffffffffff1673ffffffffffffffffffffffffffffffffffffffff166370a08231306040518263ffffffff1660e01b8152600401808273ffffffffffffffffffffffffffffffffffffffff1673ffffffffffffffffffffffffffffffffffffffff16815260200191505060206040518083038186803b158015611e5657600080fd5b505afa158015611e6a573d6000803e3d6000fd5b505050506040513d6020811015611e8057600080fd5b81019080805190602001909291905050509050611f02606960009054906101000a900473ffffffffffffffffffffffffffffffffffffffff1682606860009054906101000a900473ffffffffffffffffffffffffffffffffffffffff1673ffffffffffffffffffffffffffffffffffffffff166125679092919063ffffffff16565b606960009054906101000a900473ffffffffffffffffffffffffffffffffffffffff1673ffffffffffffffffffffffffffffffffffffffff1663b6b55f25826040518263ffffffff1660e01b815260040180828152602001915050600060405180830381600087803b158015611f7757600080fd5b505af1158015611f8b573d6000803e3d6000fd5b50505050611f9761295e565b6000606b60009054906101000a900473ffffffffffffffffffffffffffffffffffffffff1673ffffffffffffffffffffffffffffffffffffffff166370a08231306040518263ffffffff1660e01b8152600401808273ffffffffffffffffffffffffffffffffffffffff1673ffffffffffffffffffffffffffffffffffffffff16815260200191505060206040518083038186803b15801561203857600080fd5b505afa15801561204c573d6000803e3d6000fd5b505050506040513d602081101561206257600080fd5b810190808051906020019092919050505090506120c96120806124ce565b82606b60009054906101000a900473ffffffffffffffffffffffffffffffffffffffff1673ffffffffffffffffffffffffffffffffffffffff166127879092919063ffffffff16565b50505050565b6000606860009054906101000a900473ffffffffffffffffffffffffffffffffffffffff1673ffffffffffffffffffffffffffffffffffffffff166370a08231306040518263ffffffff1660e01b8152600401808273ffffffffffffffffffffffffffffffffffffffff1673ffffffffffffffffffffffffffffffffffffffff16815260200191505060206040518083038186803b15801561217057600080fd5b505afa158015612184573d6000803e3d6000fd5b505050506040513d602081101561219a57600080fd5b8101908080519060200190929190505050905090565b606960009054906101000a900473ffffffffffffffffffffffffffffffffffffffff1681565b6121de6114f5565b612250576040517f08c379a00000000000000000000000000000000000000000000000000000000081526004018080602001828103825260208152602001807f4f776e61626c653a2063616c6c6572206973206e6f7420746865206f776e657281525060200191505060405180910390fd5b61225981612a3b565b50565b60008083141561226f57600090506122dc565b600082840290508284828161228057fe5b04146122d7576040517f08c379a00000000000000000000000000000000000000000000000000000000081526004018080602001828103825260218152602001806130086021913960400191505060405180910390fd5b809150505b92915050565b600061232483836040518060400160405280601a81526020017f536166654d6174683a206469766973696f6e206279207a65726f000000000000815250612b81565b905092915050565b6000808373ffffffffffffffffffffffffffffffffffffffff1663313ce5676040518163ffffffff1660e01b815260040160206040518083038186803b15801561237557600080fd5b505afa158015612389573d6000803e3d6000fd5b505050506040513d602081101561239f57600080fd5b8101908080519060200190929190505050905060128160ff1614156123c75782915050612429565b60128160ff1611156123f7576123ef6012820360ff16600a0a846122e290919063ffffffff16565b915050612429565b60128160ff1610156124275761241f8160120360ff16600a0a8461225c90919063ffffffff16565b915050612429565b505b92915050565b6000808284019050838110156124ad576040517f08c379a000000000000000000000000000000000000000000000000000000000815260040180806020018281038252601b8152602001807f536166654d6174683a206164646974696f6e206f766572666c6f77000000000081525060200191505060405180910390fd5b8091505092915050565b6000803090506000813b9050600081149250505090565b600033905090565b6000806124e1610b5c565b905060006124ed611554565b905061251482612506868461225c90919063ffffffff16565b6122e290919063ffffffff16565b92505050919050565b600061255f83836040518060400160405280601e81526020017f536166654d6174683a207375627472616374696f6e206f766572666c6f770000815250612c47565b905092915050565b6000811480612661575060008373ffffffffffffffffffffffffffffffffffffffff1663dd62ed3e30856040518363ffffffff1660e01b8152600401808373ffffffffffffffffffffffffffffffffffffffff1673ffffffffffffffffffffffffffffffffffffffff1681526020018273ffffffffffffffffffffffffffffffffffffffff1673ffffffffffffffffffffffffffffffffffffffff1681526020019250505060206040518083038186803b15801561262457600080fd5b505afa158015612638573d6000803e3d6000fd5b505050506040513d602081101561264e57600080fd5b8101908080519060200190929190505050145b6126b6576040517f08c379a00000000000000000000000000000000000000000000000000000000081526004018080602001828103825260368152602001806130816036913960400191505060405180910390fd5b612782838473ffffffffffffffffffffffffffffffffffffffff1663095ea7b3905060e01b8484604051602401808373ffffffffffffffffffffffffffffffffffffffff1673ffffffffffffffffffffffffffffffffffffffff16815260200182815260200192505050604051602081830303815290604052907bffffffffffffffffffffffffffffffffffffffffffffffffffffffff19166020820180517bffffffffffffffffffffffffffffffffffffffffffffffffffffffff8381831617835250505050612d07565b505050565b612853838473ffffffffffffffffffffffffffffffffffffffff1663a9059cbb905060e01b8484604051602401808373ffffffffffffffffffffffffffffffffffffffff1673ffffffffffffffffffffffffffffffffffffffff16815260200182815260200192505050604051602081830303815290604052907bffffffffffffffffffffffffffffffffffffffffffffffffffffffff19166020820180517bffffffffffffffffffffffffffffffffffffffffffffffffffffffff8381831617835250505050612d07565b505050565b612958848573ffffffffffffffffffffffffffffffffffffffff166323b872dd905060e01b858585604051602401808473ffffffffffffffffffffffffffffffffffffffff1673ffffffffffffffffffffffffffffffffffffffff1681526020018373ffffffffffffffffffffffffffffffffffffffff1673ffffffffffffffffffffffffffffffffffffffff1681526020018281526020019350505050604051602081830303815290604052907bffffffffffffffffffffffffffffffffffffffffffffffffffffffff19166020820180517bffffffffffffffffffffffffffffffffffffffffffffffffffffffff8381831617835250505050612d07565b50505050565b606a60009054906101000a900473ffffffffffffffffffffffffffffffffffffffff1673ffffffffffffffffffffffffffffffffffffffff16636a627842606960009054906101000a900473ffffffffffffffffffffffffffffffffffffffff166040518263ffffffff1660e01b8152600401808273ffffffffffffffffffffffffffffffffffffffff1673ffffffffffffffffffffffffffffffffffffffff168152602001915050600060405180830381600087803b158015612a2157600080fd5b505af1158015612a35573d6000803e3d6000fd5b50505050565b600073ffffffffffffffffffffffffffffffffffffffff168173ffffffffffffffffffffffffffffffffffffffff161415612ac1576040517f08c379a0000000000000000000000000000000000000000000000000000000008152600401808060200182810382526026815260200180612fe26026913960400191505060405180910390fd5b8073ffffffffffffffffffffffffffffffffffffffff16603360009054906101000a900473ffffffffffffffffffffffffffffffffffffffff1673ffffffffffffffffffffffffffffffffffffffff167f8be0079c531659141344cd1fd0a4f28419497f9722a3daafe3b4186f6b6457e060405160405180910390a380603360006101000a81548173ffffffffffffffffffffffffffffffffffffffff021916908373ffffffffffffffffffffffffffffffffffffffff16021790555050565b60008083118290612c2d576040517f08c379a00000000000000000000000000000000000000000000000000000000081526004018080602001828103825283818151815260200191508051906020019080838360005b83811015612bf2578082015181840152602081019050612bd7565b50505050905090810190601f168015612c1f5780820380516001836020036101000a031916815260200191505b509250505060405180910390fd5b506000838581612c3957fe5b049050809150509392505050565b6000838311158290612cf4576040517f08c379a00000000000000000000000000000000000000000000000000000000081526004018080602001828103825283818151815260200191508051906020019080838360005b83811015612cb9578082015181840152602081019050612c9e565b50505050905090810190601f168015612ce65780820380516001836020036101000a031916815260200191505b509250505060405180910390fd5b5060008385039050809150509392505050565b612d268273ffffffffffffffffffffffffffffffffffffffff16612f52565b612d98576040517f08c379a000000000000000000000000000000000000000000000000000000000815260040180806020018281038252601f8152602001807f5361666545524332303a2063616c6c20746f206e6f6e2d636f6e74726163740081525060200191505060405180910390fd5b600060608373ffffffffffffffffffffffffffffffffffffffff16836040518082805190602001908083835b60208310612de75780518252602082019150602081019050602083039250612dc4565b6001836020036101000a0380198251168184511680821785525050505050509050019150506000604051808303816000865af19150503d8060008114612e49576040519150601f19603f3d011682016040523d82523d6000602084013e612e4e565b606091505b509150915081612ec6576040517f08c379a00000000000000000000000000000000000000000000000000000000081526004018080602001828103825260208152602001807f5361666545524332303a206c6f772d6c6576656c2063616c6c206661696c656481525060200191505060405180910390fd5b600081511115612f4c57808060200190516020811015612ee557600080fd5b8101908080519060200190929190505050612f4b576040517f08c379a000000000000000000000000000000000000000000000000000000000815260040180806020018281038252602a815260200180613057602a913960400191505060405180910390fd5b5b50505050565b60008060007fc5d2460186f7233c927e7db2dcc703c0e500b653ca82273b7bfad8045d85a47060001b9050833f9150808214158015612f9457506000801b8214155b92505050919050565b604051806020016040528060019060208202803883398082019150509050509056fe496e636f7272656374206465706f73697420636f6e747261637420616464726573734f776e61626c653a206e6577206f776e657220697320746865207a65726f2061646472657373536166654d6174683a206d756c7469706c69636174696f6e206f766572666c6f77436f6e747261637420696e7374616e63652068617320616c7265616479206265656e20696e697469616c697a65645361666545524332303a204552433230206f7065726174696f6e20646964206e6f7420737563636565645361666545524332303a20617070726f76652066726f6d206e6f6e2d7a65726f20746f206e6f6e2d7a65726f20616c6c6f77616e6365a265627a7a723158206e0ddb416e614de2cc3e2c02fa00acdb6f513875c287601b40ef9639f9acca3564736f6c634300050c0032",
  "source": "pragma solidity ^0.5.12;\n\nimport \"@openzeppelin/upgrades/contracts/Initializable.sol\";\nimport \"@openzeppelin/contracts-ethereum-package/contracts/GSN/Context.sol\";\nimport \"@openzeppelin/contracts-ethereum-package/contracts/ownership/Ownable.sol\";\n\nimport \"@openzeppelin/contracts-ethereum-package/contracts/token/ERC20/IERC20.sol\";\nimport \"@openzeppelin/contracts-ethereum-package/contracts/token/ERC20/ERC20Detailed.sol\";\nimport \"@openzeppelin/contracts-ethereum-package/contracts/token/ERC20/SafeERC20.sol\";\nimport \"@openzeppelin/contracts-ethereum-package/contracts/math/SafeMath.sol\";\n\nimport \"../Interfaces/ICurveFi_DepositY.sol\";\nimport \"../Interfaces/ICurveFi_Gauge.sol\";\nimport \"../Interfaces/ICurveFi_Minter.sol\";\nimport \"../Interfaces/ICurveFi_SwapY.sol\";\nimport \"../Interfaces/IYERC20.sol\";\n\ncontract Vault is Initializable, Context, Ownable {\n    using SafeMath for uint256;\n    using SafeERC20 for IERC20;\n\n    address public curveFi_Deposit;\n    address public curveFi_Swap;\n    address public curveFi_LPToken;\n    address public curveFi_LPGauge;\n    address public curveFi_CRVMinter;\n    address public curveFi_CRVToken;\n    \n    function initialize() external initializer {\n        Ownable.initialize(_msgSender());\n    }\n\n    /**\n     * @notice Set CurveFi contracts addresses\n     * @param _depositContract CurveFi Deposit contract for Y-pool\n     * @param _gaugeContract CurveFi Gauge contract for Y-pool\n     * @param _minterContract CurveFi CRV minter\n     */\n    function setup(address _depositContract, address _gaugeContract, address _minterContract) external onlyOwner {\n        require(_depositContract != address(0), \"Incorrect deposit contract address\");\n\n        curveFi_Deposit = _depositContract;\n        curveFi_Swap = ICurveFi_DepositY(curveFi_Deposit).curve();\n        curveFi_LPGauge = _gaugeContract;\n        curveFi_LPToken = ICurveFi_DepositY(curveFi_Deposit).token();\n\n        require(ICurveFi_Gauge(curveFi_LPGauge).lp_token() == address(curveFi_LPToken), \"CurveFi LP tokens do not match\");        \n\n        curveFi_CRVMinter = _minterContract;\n        curveFi_CRVToken = ICurveFi_Gauge(curveFi_LPGauge).crv_token();\n    }\n\n\n    /**\n     * @notice Deposits 4 stablecoins (registered in Curve.Fi Y pool)\n     * @param _amounts Array of amounts for CurveFI stablecoins in pool (denormalized to token decimals)\n     */\n    function deposit(uint256[1] memory _amounts) public {\n        address stablecoins = ICurveFi_DepositY(curveFi_Deposit).underlying_coins(0);\n\n\n        IERC20(stablecoins).safeTransferFrom(_msgSender(), address(this), _amounts[0]);\n        IERC20(stablecoins).safeApprove(curveFi_Deposit, _amounts[0]);\n        \n\n        //Step 1 - deposit stablecoins and get Curve.Fi LP tokens\n        ICurveFi_DepositY(curveFi_Deposit).add_liquidity(_amounts, 0); //0 to mint all Curve has to \n\n        //Step 2 - stake Curve LP tokens into Gauge and get CRV rewards\n        uint256 curveLPBalance = IERC20(curveFi_LPToken).balanceOf(address(this));\n\n        IERC20(curveFi_LPToken).safeApprove(curveFi_LPGauge, curveLPBalance);\n        ICurveFi_Gauge(curveFi_LPGauge).deposit(curveLPBalance);\n\n        //Step 3 - get all the rewards (and make whatever you need with them)\n        crvTokenClaim();\n        uint256 crvAmount = IERC20(curveFi_CRVToken).balanceOf(address(this));\n        IERC20(curveFi_CRVToken).safeTransfer(_msgSender(), crvAmount);\n\n    }\n\n\n    /**\n     * @notice Withdraws 4 stablecoins (registered in Curve.Fi Y pool)\n     * @param _amounts Array of amounts for CurveFI stablecoins in pool (denormalized to token decimals)\n     */\n    function withdraw(uint256[1] memory _amounts) public {\n        address stablecoins = ICurveFi_DepositY(curveFi_Deposit).underlying_coins(0);\n\n        //Step 1 - Calculate amount of Curve LP-tokens to unstake\n        uint256 nWithdraw;\n        uint256 i;\n\n        nWithdraw = nWithdraw.add(normalize(stablecoins, _amounts[0]));\n        \n\n        uint256 withdrawShares = calculateShares(nWithdraw);\n\n        //Check if you can re-use unstaked LP tokens\n        uint256 notStaked = curveLPTokenUnstaked();\n        if (notStaked > 0) {\n            withdrawShares = withdrawShares.sub(notStaked);\n        }\n\n        //Step 2 - Unstake Curve LP tokens from Gauge\n        ICurveFi_Gauge(curveFi_LPGauge).withdraw(withdrawShares);\n    \n        //Step 3 - Withdraw stablecoins from CurveDeposit\n        IERC20(curveFi_LPToken).safeApprove(curveFi_Deposit, withdrawShares);\n        ICurveFi_DepositY(curveFi_Deposit).remove_liquidity_imbalance(_amounts, withdrawShares);\n        \n        //Step 4 - Send stablecoins to the requestor\n      \n        IERC20 stablecoin = IERC20(stablecoins);\n        uint256 balance = stablecoin.balanceOf(address(this));\n        uint256 amount = (balance <= _amounts[0]) ? balance : _amounts[0]; //Safepoint for rounding\n        stablecoin.safeTransfer(_msgSender(), amount);\n        \n    }\n\n    /**\n     * @notice Get amount of CurveFi LP tokens staked in the Gauge\n     */\n    function curveLPTokenStaked() public view returns(uint256) {\n        return ICurveFi_Gauge(curveFi_LPGauge).balanceOf(address(this));\n    }\n    \n    /**\n     * @notice Get amount of unstaked CurveFi LP tokens (which lay on this contract)\n     */\n    function curveLPTokenUnstaked() public view returns(uint256) {\n        return IERC20(curveFi_LPToken).balanceOf(address(this));\n    }\n\n    /**\n     * @notice Get full amount of Curve LP tokens available for this contract\n     */\n    function curveLPTokenBalance() public view returns(uint256) {\n        uint256 staked = curveLPTokenStaked();\n        uint256 unstaked = curveLPTokenUnstaked();\n        return unstaked.add(staked);\n    }\n\n    /**\n     * @notice Claim CRV reward\n     */\n    function crvTokenClaim() internal {\n        ICurveFi_Minter(curveFi_CRVMinter).mint(curveFi_LPGauge);\n    }\n\n    /**\n     * @notice Calculate shared part of this contract in LP token distriution\n     * @param normalizedWithdraw amount of stablecoins to withdraw normalized to 18 decimals\n     */    \n    function calculateShares(uint256 normalizedWithdraw) internal view returns(uint256) {\n        uint256 nBalance = normalizedBalance();\n        uint256 poolShares = curveLPTokenBalance();\n        \n        return poolShares.mul(normalizedWithdraw).div(nBalance);\n    }\n\n    /**\n     * @notice Balances of stablecoins available for withdraw\n     */\n    function balanceOfAll() public view returns(uint256[1] memory balances) {\n        address stablecoins = ICurveFi_DepositY(curveFi_Deposit).underlying_coins(0);\n\n        uint256 curveLPBalance = curveLPTokenBalance();\n        uint256 curveLPTokenSupply = IERC20(curveFi_LPToken).totalSupply();\n\n        require(curveLPTokenSupply > 0, \"No Curve LP tokens minted\");\n\n  \n        //Get Y-tokens balance\n        uint256 yLPTokenBalance = ICurveFi_SwapY(curveFi_Swap).balances(int128(0));\n        address yCoin = ICurveFi_SwapY(curveFi_Swap).coins(int128(0));\n\n        //Calculate user's shares in y-tokens\n        uint256 yShares = yLPTokenBalance.mul(curveLPBalance).div(curveLPTokenSupply);\n\n        //Get y-token price for underlying coin\n        uint256 yPrice = IYERC20(yCoin).getPricePerFullShare();\n\n        //Re-calculate available stablecoins balance by y-tokens shares\n        balances[0] = yPrice.mul(yShares).div(1e18);\n        \n    }\n\n    /**\n     * @notice Balances of stablecoins available for withdraw normalized to 18 decimals\n     */\n    function normalizedBalance() public view returns(uint256) {\n        address stablecoins = ICurveFi_DepositY(curveFi_Deposit).underlying_coins(0);\n        uint256[1] memory balances = balanceOfAll();\n\n        uint256 summ;\n\n        summ = summ.add(normalize(stablecoins, balances[0]));\n        \n        return summ;\n    }\n\n    /**\n     * @notice Util to normalize balance up to 18 decimals\n     */\n    function normalize(address coin, uint256 amount) internal view returns(uint256) {\n        uint8 decimals = ERC20Detailed(coin).decimals();\n        if (decimals == 18) {\n            return amount;\n        } else if (decimals > 18) {\n            return amount.div(uint256(10)**(decimals-18));\n        } else if (decimals < 18) {\n            return amount.mul(uint256(10)**(18 - decimals));\n        }\n    }\n}",
  "sourcePath": "/Users/adityabharti/kosenai/contracts/Vault.sol",
  "compiler": {
    "name": "solc",
    "version": "0.5.12+commit.7709ece9.Emscripten.clang"
  },
  "schemaVersion": "3.3.4",
  "updatedAt": "2022-04-24T17:59:36.801Z",
  "devdoc": {
    "methods": {
      "deposit(uint256[1])": {
        "params": {
          "_amounts": "Array of amounts for CurveFI stablecoins in pool (denormalized to token decimals)"
        }
      },
      "initialize(address)": {
        "details": "Initializes the contract setting the deployer as the initial owner."
      },
      "isOwner()": {
        "details": "Returns true if the caller is the current owner."
      },
      "owner()": {
        "details": "Returns the address of the current owner."
      },
      "renounceOwnership()": {
        "details": "Leaves the contract without owner. It will not be possible to call `onlyOwner` functions anymore. Can only be called by the current owner.     * > Note: Renouncing ownership will leave the contract without an owner, thereby removing any functionality that is only available to the owner."
      },
      "setup(address,address,address)": {
        "params": {
          "_depositContract": "CurveFi Deposit contract for Y-pool",
          "_gaugeContract": "CurveFi Gauge contract for Y-pool",
          "_minterContract": "CurveFi CRV minter"
        }
      },
      "transferOwnership(address)": {
        "details": "Transfers ownership of the contract to a new account (`newOwner`). Can only be called by the current owner."
      },
      "withdraw(uint256[1])": {
        "params": {
          "_amounts": "Array of amounts for CurveFI stablecoins in pool (denormalized to token decimals)"
        }
      }
    }
  },
  "userdoc": {
    "methods": {
      "balanceOfAll()": {
        "notice": "Balances of stablecoins available for withdraw"
      },
      "curveLPTokenBalance()": {
        "notice": "Get full amount of Curve LP tokens available for this contract"
      },
      "curveLPTokenStaked()": {
        "notice": "Get amount of CurveFi LP tokens staked in the Gauge"
      },
      "curveLPTokenUnstaked()": {
        "notice": "Get amount of unstaked CurveFi LP tokens (which lay on this contract)"
      },
      "deposit(uint256[1])": {
        "notice": "Deposits 4 stablecoins (registered in Curve.Fi Y pool)"
      },
      "normalizedBalance()": {
        "notice": "Balances of stablecoins available for withdraw normalized to 18 decimals"
      },
      "setup(address,address,address)": {
        "notice": "Set CurveFi contracts addresses"
      },
      "withdraw(uint256[1])": {
        "notice": "Withdraws 4 stablecoins (registered in Curve.Fi Y pool)"
      }
    }
  }
}